:100000000C9471010C94A2010C94A2010C94A20115
:100010000C94A2010C94A2010C94A2010C94A201D4
:100020000C94A2010C94540A0C94540A0C94540A93
:100030000C94A2010C94CC0B0C94A2010C94A20180
:100040000C94A2010C94250E0C94A2010C94A20114
:100050000C94A2010C94A2010C94A2010C94820BAA
:100060000C94A2010C943B0D0C94110D0C94A20164
:100070000C94A2010C94A2010C94A2010C94A20174
:100080000C94A2010C94A2010C94A2010C94A20164
:100090000C94A2010C94A2010C94A2010C945E0A8F
:1000A0000C94A2010C94A2010C94A2010C94A20144
:1000B0000C94A2010C94A2010C94A2010C94650D65
:1000C0000C94A2010C94A2010C94A2010C94E70CD4
:1000D0000C94BD0C0C94A2010C94930C0C94690C20
:1000E0000C94A2010C941E050C941F070C9405029D
:1000F0000C9461080C94A3020C940B070C9449080F
:100100000C949F020C948E070C941F020C94A7026F
:100110000C94C6020C94CD0E0C9448080C949902D1
:100120000C94D0020C9487050C947A070C94390730
:100130000C9464050C94F3010C944D070C94C202CA
:100140000C9418020C9429070C9466070C94F60181
:100150000C94B2140C9470070C942E060C94570750
:100160000C94F5010C94D4020C94B4020C94B802D3
:100170000C94CC020C9495050C94AB020C943107B2
:100180000C94DA020C9443070C9473050C94BE0291
:100190000C94AE020C9406070C944C020C94F401DF
:1001A0000C9484070C94E1050C94D9020C94150767
:1001B0000C9498070C94DE020C94F50602000021C2
:1001C00000240027002A002D003000330001010028
:1001D00000040107010A0100002200250028002B6D
:1001E000002E003100340002010000050108010B5F
:1001F00001000020002300260029002C002F0032DF
:1002000000000100000301060109010505050507BD
:100210000508080808020202020A0A080804040481
:1002200004010101010101010103030303030303AD
:1002300003040707070C0C0C0C0C0C0C0C0202023C
:100240000206060606060606060B0B0B0B0B0B0B2F
:100250000B010210202008081020401020408002CE
:1002600001020108040201010204081020408080FC
:100270004020100804020180040201804020100880
:100280000402010804020101020408102040800158
:100290000204081020408000000A0B02090C0D0E19
:1002A0000807030401000000000000000000000037
:1002B000000000000000000000000000000000003E
:1002C00000000012111000000000000000000000FB
:1002D0000000000000000000000000000000CD0E43
:1002E000B21411241FBECFEFD1E2DEBFCDBF00E0BC
:1002F0000CBF12E0A0E0B2E0E6EDF1E300E00BBFDE
:1003000002C007900D92A034B107D9F727E0A0E40E
:10031000B2E001C01D92AC32B207E1F711E0C0E7D4
:10032000D1E000E006C021970109802FFE010E9464
:10033000FF15CF36D10780E00807A9F70E94C31048
:100340000C94D9180C940000E9E7F4E0A089B18975
:1003500082E08C93A485B5851C92A685B7858FEC29
:100360008C93108EA489B58986E08C93A289B38979
:100370008C9180618C93A289B3898C9188608C93D5
:10038000A289B3898C9180688C930288F389E02DCF
:1003900080818F7D808308952091BC02260F3327B2
:1003A000331F21323105ECF420910903FC0190E068
:1003B00080E0243069F082E00895A091BC02219190
:1003C000AC0146565D4FA40FB52FB11D2C9301967D
:1003D000861798F38091BC02680F6093BC0280E09E
:1003E000089581E00895089508950895E091980290
:1003F00080919702E81730F4F0E0E958FD4F8081D2
:1004000090E008958FEF9FEF08959091980280916A
:1004100097022FEF3FEF981748F4E92FF0E0E958E3
:10042000FD4F208130E09F5F90939802C9010895AD
:100430008091970290919802891B990B0895CF9211
:10044000DF92EF92FF920F931F93CF93DF937C0184
:10045000CB018A0120910F03222389F0EB016B016C
:10046000C40ED51ECC15DD0569F06991D701ED915B
:10047000FC910190F081E02DC7011995F3CF642F15
:100480000E94CC01C801DF91CF911F910F91FF9085
:10049000EF90DF90CF900895CF93DF931F92CDB769
:1004A000DEB7698320910F032223F9F020913203F4
:1004B000203258F021E030E0FC013383228390E0C9
:1004C00080E00F90DF91CF91089580911003E82F85
:1004D000F0E0EF5EFC4F998190838F5F8093100373
:1004E0008093320381E090E0ECCF61E0CE01019691
:1004F0000E94CC01F7CF8150823108F05AC0E82F1A
:10050000F0E08827E957FD4F8F4F0C94FF15A702A5
:10051000AB0299029F02A302D902AE02B402B80252
:10052000BE02C202C602CC02D002D902D402DA0252
:10053000DE02809180008F77809380000895809103
:1005400080008F7DF9CF80918000877FF5CF84B5C3
:100550008F7784BD089584B58F7DFBCF8091B000E7
:100560008F778093B00008958091B0008F7DF9CF90
:10057000809190008F7780939000089580919000F3
:100580008F7DF9CF80919000877FF5CF8091A0007B
:100590008F778093A00008958091A0008F7DF9CF80
:1005A0008091A000877FF5CF809120018F77809385
:1005B00020010895809120018F7DF9CF8091200145
:1005C000877FF5CFCF93DF93282F30E0F901E956ED
:1005D000FD4F8491F901EF5AFD4FD491F901E55F88
:1005E000FD4FC491CC23A1F081110E947B02EC2F1E
:1005F000F0E0EE0FFF1FEF50FE4FA591B491EC918C
:10060000ED2381E090E009F480E0DF91CF9108953F
:1006100080E090E0FACF1F93CF93DF93282F30E054
:10062000F901E956FD4F8491F901EF5AFD4FD4913C
:10063000F901E55FFD4FC491CC23A9F0162F81117C
:100640000E947B02EC2FF0E0EE0FFF1FE952FE4FFD
:10065000A591B4918FB7F894EC91111108C0D09581
:10066000DE23DC938FBFDF91CF911F910895DE2BA6
:10067000F8CF1092090381E0809308031092E302FF
:1006800061E084E10E940B0361E085E10E940B03BD
:10069000E9EBF0E080818E7F808380818D7F808395
:1006A00088E48093B80085E48093BC000895CF93DC
:1006B000DF9391E0909399028823B9F0C091B8003C
:1006C000D091BA008091BC008A7B8093BC0060E02E
:1006D00084E10E940B0360E085E10E940B030E940D
:1006E0003903D093BA00C093B800DF91CF91089539
:1006F000CF93DF9390E0FC01EF5AFD4F2491855F8B
:100700009D4FFC0184918823D1F090E0880F991FC0
:10071000FC01E354FE4FA591B491FC01E952FE4F58
:10072000C591D49161110EC09FB7F8948C91E22FBE
:10073000E0958E238C932881E223E8839FBFDF918D
:10074000CF9108958FB7F894EC91E22BEC938FBF83
:10075000F6CF3FB7F8948091730290917402A09104
:100760007502B091760226B5A89B05C02F3F19F0FF
:100770000196A11DB11D3FBFBA2FA92F982F882721
:10078000BC01CD01620F711D811D911D42E0660FFC
:10079000771F881F991F4A95D1F70895CF92DF924E
:1007A000EF92FF920F931F93CF93DF93D091320379
:1007B00081E0D13208F09CC0C09131030E94A903AE
:1007C0006B017C018091090381116CC082E08093F0
:1007D000090381E0809308038FEF80930703109251
:1007E0000603D0930503A1E1B3E0E5EEF2E080E07B
:1007F000D8138DC01092E4028091E402CC0FC82B74
:10080000C093E4028091E302813009F084C0109229
:10081000E3020E94A9036B017C018091E4028093B2
:10082000BB0080910B0390910C03A0910D03B0913C
:100830000E03892B8A2B8B2BA1F00E94A903009118
:100840000B0310910C0320910D0330910E036C19D2
:100850007D098E099F09061717072807390708F42D
:1008600042C08091BC0083FDD8CF85EC8093BC0052
:100870000E94A9036B017C0180910903823009F475
:100880004CC0809107038F3F09F469C08091070332
:10089000803209F466C080910703803309F463C095
:1008A00084E026C080910B0390910C03A0910D036E
:1008B000B0910E03892B8A2B8B2B09F483CF0E94D6
:1008C000A90300910B0310910C0320910D033091AB
:1008D0000E036C197D098E099F0906171707280753
:1008E000390708F06FCF80910A030E94570385E013
:1008F000109210031092320310920F03DF91CF91E8
:100900001F910F91FF90EF90DF90CF9008959D91F0
:1009100091938F5F6DCF85EEA9CF80910B0390915E
:100920000C03A0910D03B0910E03892B8A2B8B2B06
:1009300009F4A2CF0E94A90300910B0310910C03AC
:1009400020910D0330910E036C197D098E099F09CA
:10095000061717072807390708F08ECFC4CF80E0A5
:10096000C7CF82E0C5CF83E0C3CF0F931F93CF9350
:10097000DF93162F072FCDEED6E0AA85BB859C8589
:1009800021E020930F0390933103109210031092F3
:100990003203ED91FC9111970190F081E02D682FC9
:1009A000CD0119958A859B85DC01ED91FC91019023
:1009B000F081E02D602F19958A859B85DC01ED91F2
:1009C000FC910190F081E02D612F1995DF91CF917D
:1009D0001F910F910C94CE038F929F92AF92BF9272
:1009E000CF92DF92EF92FF924B015C010E94A9032C
:1009F0006B017C010E94A9036C197D098E099F0976
:100A0000683E734081059105A8F321E0821A9108A0
:100A1000A108B10888EEC80E83E0D81EE11CF11CC5
:100A200081149104A104B10429F7FF90EF90DF90A5
:100A3000CF90BF90AF909F908F900895AF92BF924C
:100A4000CF92DF92EF92FF920F931F93CF93DF939A
:100A50006C017B018B01040F151FEB015E01AE18C9
:100A6000BF08C017D10759F06991D601ED91FC91EB
:100A70000190F081E02DC6011995892B79F7C50108
:100A8000DF91CF911F910F91FF90EF90DF90CF906A
:100A9000BF90AF900895FC01A089B1898C91A6897F
:100AA000B78982FD0FC09C91818D8F5F8F73228DDE
:100AB000821749F0A18DAE0FBF2FB11D5D969C939B
:100AC000818F08958C910895FC01538D448D252FBD
:100AD00030E0842F90E0821B930B541710F0CF96D8
:100AE000089501970895FC01918D828D981761F00A
:100AF000A28DAE0FBF2FB11D5D968C91928D9F5F21
:100B00009F73928F90E008958FEF9FEF0895FC01FF
:100B1000918D828D981731F0828DE80FF11D858DB2
:100B200090E008958FEF9FEF0895FC01918D228D45
:100B3000892F90E0805C9F4F821B91098F739927CA
:100B400008958FE393E00E94950521E0892B09F435
:100B500020E0822F08958CED93E00E94950521E01E
:100B6000892B09F420E0822F089589E794E00E9400
:100B7000950521E0892B09F420E0822F0895FC01DE
:100B8000A48DA80FB92FB11DA35ABF4F2C91848DEE
:100B900090E001968F739927848FA689B7892C934B
:100BA000A089B1898C91837080648C93938D848D9E
:100BB000981306C00288F389E02D80818F7D8083A1
:100BC0000895EF92FF920F931F93CF93DF93EC0161
:100BD00081E0888F9B8D8C8D98131AC0E889F989E4
:100BE000808185FF15C09FB7F894EE89FF896083E7
:100BF000E889F98980818370806480839FBF81E068
:100C000090E0DF91CF911F910F91FF90EF900895A9
:100C1000F62E0B8D10E00F5F1F4F0F731127E02E84
:100C20008C8D8E110CC00FB607FCFACFE889F989BC
:100C3000808185FFF5CFCE010E94BF05F1CFEB8DFE
:100C4000EC0FFD2FF11DE35AFF4FF0829FB7F89490
:100C50000B8FEA89FB8980818062CFCFCF93DF93AE
:100C6000EC01888D8823B9F0AA89BB89E889F989C4
:100C70008C9185FD03C0808186FD0DC00FB607FCF9
:100C8000F7CF8C9185FFF2CF808185FFEDCFCE012C
:100C90000E94BF05E9CFDF91CF910895F0E0E0E039
:100CA000199480E090E0892B29F00E94B50581110C
:100CB0000E94000080E090E0892B49F080E090E005
:100CC000892B29F00E94000081110E9400000E94DF
:100CD000AB0581110E944E0680E090E0892B29F03F
:100CE0000E94A10581110C94000008958F929F929B
:100CF000AF92BF92CF92DF92EF92FF920F931F932A
:100D0000CF93DF93EC016A017B0120E030E04FE7F5
:100D100053E4CB01B6010E9421154B015C0120E098
:100D200030E0A9010E94BE1618168CF5C501B40169
:100D30000E9488168B01B98020E030E0A901C7012C
:100D4000B6010E94BE1660E018160CF061E08B2D13
:100D50000E940B030F3F110509F0ECF41127C88125
:100D600061E08C2F0E94780301151105B9F460E051
:100D70008C2FDF91CF911F910F91FF90EF90DF901B
:100D8000CF90BF90AF909F908F900C940B03C501B4
:100D9000B4019058CDCF0FEF10E0E1CF0F3F110518
:100DA00011F461E0E5CFEC2FF0E0E956FD4FE4915E
:100DB000E150E23108F0BCC0F0E08827ED51F94F76
:100DC0008F4F0C94FF15F50606070B0715071F0735
:100DD000980729073107390743074D075707660763
:100DE000700798077A0784078E0784B5806884BDEA
:100DF00007BDDF91CF911F910F91FF90EF90DF9092
:100E0000CF90BF90AF909F908F90089584B58062EF
:100E100084BD08BDEECF8091800080688093800003
:100E20001093890000938800E4CF80918000806255
:100E30008093800010938B0000938A00DACF80911A
:100E4000800088608093800010938D0000938C0058
:100E5000D0CF8091B00080688093B0000093B30041
:100E6000C8CF8091B00080628093B0000093B4003E
:100E7000C0CF80919000806880939000109399007B
:100E800000939800B6CF809190008062809390008C
:100E900010939B0000939A00ACCF809190008860E3
:100EA0008093900010939D0000939C00A2CF8091AE
:100EB000A00080688093A0008091A0008F7B809329
:100EC000A0001093A9000093A80093CF8091A000E8
:100ED00080628093A0001093AB000093AA0089CF9A
:100EE0008091A00088608093A0001093AD000093D3
:100EF000AC007FCF80912001806880932001109307
:100F000029010093280175CF809120018062809390
:100F1000200110932B0100932A016BCF80912001B7
:100F200088608093200110932D0100932C0161CFE4
:100F3000003811050CF035CF1ACF8EBD00000DB46E
:100F400007FEFDCF8EB50895CF93DF93EC0160E0EF
:100F500088810E940B0388E90E949D0780E00E941F
:100F60009D0780E00E949D0780E00E949D0780E031
:100F70000E949D0761E088810E940B038BE891E04D
:100F80000197F1F760E088810E940B0380EE0E94D8
:100F90009D0761E08881DF91CF910C940B03AF92A4
:100FA000BF92CF92DF92EF92FF920F931F93CF9356
:100FB000DF93CDB7DEB760970FB6F894DEBF0FBEF4
:100FC000CDBF6C0160E0FC0180810E940B0380E6D4
:100FD0000E949D079E012F5F3F4F79015E0131E125
:100FE000A30EB11C870180E00E949D0790E0B0E055
:100FF000A0E0F80181939193A193B1938F01EA1539
:10100000FB0589F761E0F60180810E940B0380E017
:1010100090E0DC01F70141915191619171917F0163
:10102000BA2FA92F982F8827840F951FA61FB71FA7
:10103000E017F10779F79C01AD0166277727CB010F
:10104000621B730B840B950B60960FB6F894DEBF92
:101050000FBECDBFDF91CF911F910F91FF90EF9009
:10106000DF90CF90BF90AF900895FC01248131E0D4
:1010700030930F0320933103109210031092320328
:101080008485682B83E393E00E944C020C94CE038A
:10109000089590E080E008950F931F93CF938C0103
:1010A000C62F64600E9435086C2F6B7FC8010E94B8
:1010B000350883EC90E00197F1F7CF911F910F91E4
:1010C00008950F931F93CF93DF938C01C62FD62FD4
:1010D000D07FD1606D2F0E9435086D2FC8010E940E
:1010E0004C0880E1C89FE0011124C1606C2FC80149
:1010F0000E9435086C2FC8010E944C0881E090E0E6
:10110000DF91CF911F910F91089540E050E060E092
:1011100070E888E097E00E94760640E050E0BA016F
:1011200086E097E00E9476068AE097E00E94A40796
:101130008CE097E00E94A40764E670E080E090E015
:101140000C94EC044DEC5CEC6CE47EEB88E097E0F6
:101150000E9476064DEC5CEC6CE47EEB86E097E05A
:101160000E9476068CE097E00E94CF07683A7740AD
:1011700081059105BCF30C9485084DEC5CEC6CE4A6
:101180007EE388E097E00E9476064DEC5CEC6CE430
:101190007EE386E097E00E9476068AE097E00E9470
:1011A000CF076F34784F8F4F9F4FBCF70C94850853
:1011B0008F929F92AF92BF92CF92DF92EF92FF9267
:1011C0008AE097E00E94CF076B017C01882799276E
:1011D000DC018C199D09AE09BF0980935D029093D3
:1011E0005E02A0935F02B09360028CE097E00E94E1
:1011F000CF076C0D7D1D8E1D9F1D0E94C2142CEA11
:1012000035EC47E258E30E9421154B015C01209127
:10121000590230915A0240915B0250915C020E9447
:101220001C166B017C01C0925902D0925A02E092C6
:101230005B02F0925C022CEA35EC47E258E3C50110
:10124000B4010E9421154B015C0127E73CEC4BE205
:1012500052E3C701B6010E9421159B01AC01C501F3
:10126000B4010E941C1620E030E040EA51E40E94E4
:101270002115FF90EF90DF90CF90BF90AF909F909F
:101280008F9008958AE097E00E94CF07653D754EE4
:101290008F4F9F4F0CF451C08CE097E00E94CF0716
:1012A0006C327A41810591050CF047C08AE097E0E5
:1012B0000E94CF0790958095709561957F4F8F4FD5
:1012C0009F4F0E94C21420E030E847E254E40E949D
:1012D000BB1487FD34C08AE097E00E94CF07909549
:1012E0008095709561957F4F8F4F9F4F0E94C214DC
:1012F00020E030E847E254E40E94BE16181674F16C
:101300004AE959E969E17EEB88E097E00E947606B8
:101310000E94D8082AE939E949E15EE30E941C16D7
:10132000AB01BC0186E097E00E94760662E370E0C4
:1013300080E090E00E94EC04A5CF0C9485088CE03E
:1013400097E00E94CF070E94C21420E030E847E2F5
:1013500054E40E94BB1487FFBECFD2CF8CE097E04D
:101360000E94CF070E94C21420E030E847E254E414
:101370000E94BE16181624F68AE097E00E94CF0756
:1013800090958095709561957F4F8F4F9F4F0E94EC
:10139000C21420E030E74CEB55E40E94BB1487FFF9
:1013A000AFCF8CE097E00E94CF070E94C21420E0EC
:1013B00030E74CEB55E40E94BB1487FFA1CF40E01F
:1013C00050E060E87EEB88E097E00E9476060E949D
:1013D000D80820E030E040E85EE3A0CFCF93DF9371
:1013E0000E944209C0916C02D0916D020E94420994
:1013F000CE01029790936D0280936C020E94BD080B
:1014000081E30E94E202892B79F40E94A2080E94E3
:1014100042090E9442092497D0936D02C0936C0246
:10142000DF91CF910C94BD0880E30E94E202892BEA
:1014300061F3DF91CF91089585ED8093BC00809199
:101440000B0390910C03A0910D03B0910E0307962E
:10145000A11DB11D23E0B695A795979587952A956F
:10146000D1F72091BC0024FD03C010920903089518
:1014700040910B0350910C0360910D0370910E038A
:10148000452B462B472B69F30097A105B10541F089
:1014900025E32A95F1F700000197A109B109E1CFF1
:1014A00080910A030C9457031F920F920FB60F926C
:1014B00011240F900FBE0F901F9018951F920F923E
:1014C0000FB60F9211240BB60F922F933F934F93A9
:1014D0005F936F937F938F939F93AF93BF93EF939C
:1014E000FF938091B900887F803609F44DC008F0E1
:1014F00040C0883209F4A9C028F5803109F49DC0A4
:10150000C8F4882309F4FBC0883009F496C0FF9121
:10151000EF91BF91AF919F918F917F916F915F916B
:101520004F913F912F910F900BBE0F900FBE0F90D8
:101530001F901895883109F488C0803241F7809354
:10154000070314C0803409F49DC040F48033B9F31C
:101550008833E9F68093070385ECB0C0803509F441
:1015600085C0883509F496C0883489F60E941C0A23
:10157000CECF883909F48CC038F5883729F050F47B
:10158000883611F0803719F683E0809309031092B2
:10159000E00257C0883809F47BC0803919F08038E0
:1015A00009F0B5CF8091E002803208F071C0E0917F
:1015B000E00281E08E0F8093E0028091BB00F0E0BA
:1015C000E054FD4F80833DC0803B39F0E0F4803A29
:1015D00009F479C0883A09F09ACF84E0809309032E
:1015E0001092BD021092BC02E091BA02F091BB02CF
:1015F00019958091BC0281110FC081E08093BC02DB
:1016000010929A0209C0803C09F4A6CF883C09F4E4
:10161000A3CF883B09F07BCFE091BD0281E08E0F24
:101620008093BD02F0E0E656FD4F80818093BB00C1
:101630009091BD028091BC0229C08091E402809308
:10164000BB0085EC8093BC0062CF90910603809133
:101650000503981758F5E091060381E08E0F8093FB
:101660000603F0E0EB51FD4F8081E9CFE0910603E6
:1016700081E08E0F809306038091BB00F0E0EB5178
:10168000FD4F808390910603809105039817C8F25F
:1016900085E8D8CFE091060381E08E0F80930603A2
:1016A0008091BB00F0E0EB51FD4F808380910803F7
:1016B00081115CCF81E08093E30284EA8093BC00D7
:1016C0001092090324CF85EC8093BC00109209038B
:1016D0008091E002803230F4E091E002F0E0E054EA
:1016E000FD4F10826091E00270E0E091BE02F09147
:1016F000BF0280EC92E019951092E00208CF1092A0
:10170000070334CF1F920F920FB60F9211242F931D
:101710003F938F939F93AF93BF9380916F0290916C
:101720007002A0917102B091720230916E0223E0BA
:10173000230F2D3758F50196A11DB11D20936E0280
:1017400080936F0290937002A0937102B093720223
:101750008091730290917402A0917502B09176020B
:101760000196A11DB11D8093730290937402A09302
:101770007502B0937602BF91AF919F918F913F9187
:101780002F910F900FBE0F901F90189526E8230FF2
:101790000296A11DB11DD2CF1F920F920FB60F92CC
:1017A00011240BB60F922F933F934F935F936F9338
:1017B0007F938F939F93AF93BF93EF93FF9380910A
:1017C000630290916402A0916502B0916602892B38
:1017D0008A2B8B2BD1F19091620280910000892796
:1017E000809300008091630290916402A091650251
:1017F000B0916602181619061A061B069CF4809111
:10180000630290916402A0916502B0916602019713
:10181000A109B1098093630290936402A0936502C9
:10182000B0936602FF91EF91BF91AF919F918F911D
:101830007F916F915F914F913F912F910F900BBED0
:101840000F900FBE0F901F90189580910002ECEB47
:10185000F1E0E4919FEF90930002E230E9F040F470
:10186000EE2389F0E13091F060E00E940B03DACFC3
:10187000E43049F110F1E530B9F7909173009D7FA4
:1018800090937300F1CF10926E00EECF90916F00A5
:101890009D7F90936F00E8CF909170009D7F909313
:1018A000700091E09093B0009091B100987F9460A7
:1018B0009093B1001092B300D7CF909171009D7FAB
:1018C00090937100D1CF909172009D7F90937200A0
:1018D000CBCF1F920F920FB60F9211240BB60F921F
:1018E0002F933F934F935F936F937F938F939F9328
:1018F000AF93BF93EF93FF938FE393E00E94BF05F5
:10190000FF91EF91BF91AF919F918F917F916F91D7
:101910005F914F913F912F910F900BBE0F900FBE93
:101920000F901F9018951F920F920FB60F921124CF
:101930000BB60F922F933F934F935F936F937F93C9
:101940008F939F93AF93BF93EF93FF938FE393E0B6
:101950000E944B05FF91EF91BF91AF919F918F91A5
:101960007F916F915F914F913F912F910F900BBE9F
:101970000F900FBE0F901F9018951F920F920FB6E9
:101980000F9211240BB60F922F933F934F935F93B7
:101990006F937F938F939F93AF93BF93EF93FF9337
:1019A0008CED93E00E94BF05FF91EF91BF91AF9145
:1019B0009F918F917F916F915F914F913F912F9167
:1019C0000F900BBE0F900FBE0F901F9018951F9297
:1019D0000F920FB60F9211240BB60F922F933F93D5
:1019E0004F935F936F937F938F939F93AF93BF9327
:1019F000EF93FF938CED93E00E944B05FF91EF91E5
:101A0000BF91AF919F918F917F916F915F914F9116
:101A10003F912F910F900BBE0F900FBE0F901F9014
:101A200018951F920F920FB60F9211240BB60F92BA
:101A30002F933F934F935F936F937F938F939F93D6
:101A4000AF93BF93EF93FF9389E794E00E94BF05A4
:101A5000FF91EF91BF91AF919F918F917F916F9186
:101A60005F914F913F912F910F900BBE0F900FBE42
:101A70000F901F9018951F920F920FB60F9211247E
:101A80000BB60F922F933F934F935F936F937F9378
:101A90008F939F93AF93BF93EF93FF9389E794E066
:101AA0000E944B05FF91EF91BF91AF919F918F9154
:101AB0007F916F915F914F913F912F910F900BBE4E
:101AC0000F900FBE0F901F9018951F920F920FB698
:101AD0000F9211240BB60F922F933F934F935F9366
:101AE0006F937F938F939F93AF93BF93EF93FF93E6
:101AF000809117050E94E20220911B0530911C0580
:101B00002F5F3F4F30931C0520931B0590911A05C2
:101B1000953618F096E0909316059091160594303E
:101B200009F466C0B8F49230F1F0933009F444C07F
:101B300090911905992309F46BC081117CC08091A3
:101B40001805882309F463C08091180561E00E949C
:101B50000B035EC0953009F457C0963049F791E009
:101B60009093E7054FC08111E3CF20911B05309181
:101B70001C052436310528F410921C0510921B0513
:101B8000D7CF1092E70510921A05E0911A0591E05F
:101B90009E0F90931A05F0E020911B0530911C05D3
:101BA000EE0FFF1FEA5EFA4F3087278310921C0565
:101BB00010921B0593E019C0813009F0B9CFE09174
:101BC0001A0591E09E0F90931A05F0E020911B05F5
:101BD00030911C05EE0FFF1FEA5EFA4F3087278316
:101BE00010921C0510921B0594E090931605A0CF4F
:101BF000882359F220911B0530911C0525363105AB
:101C000008F496CF95E0F1CF811192CFB5CF2F9AFE
:101C1000FF91EF91BF91AF919F918F917F916F91C4
:101C20005F914F913F912F910F900BBE0F900FBE80
:101C30000F901F90189580911805882321F08091AE
:101C4000180560E084CF2F98E3CF1F920F920FB654
:101C50000F9211240BB60F922F933F934F935F93E4
:101C60006F937F938F939F93AF93BF93CF93DF93A4
:101C7000EF93FF9380916102C0912406D0E087FF2B
:101C800023C01092850010928400809161028F5FC2
:101C90008093610280916102082E000C990B8C17D1
:101CA0009D0724F4809161028C3074F1809184004E
:101CB0009091850084349C4908F465C0809184002B
:101CC00090918500049661C080916102082E000CFD
:101CD000990B8C179D07CCF63091610225E03203F9
:101CE000F0011124E851FA4F808186FFCECF309168
:101CF00061023203F0011124E851FA4F808160E063
:101D00008F730E940B03C1CF809184009091850056
:101D10003091610225E03203F0011124E851FA4FBD
:101D200041815281840F951F909389008093880090
:101D3000309161023203F0011124E851FA4F8081A1
:101D400086FF0CC0309161023203F0011124E8518A
:101D5000FA4F808161E08F730E940B03FF91EF9136
:101D6000DF91CF91BF91AF919F918F917F916F91B3
:101D70005F914F913F912F910F900BBE0F900FBE2F
:101D80000F901F90189580E49CE9909389008093B0
:101D900088008FEF80936102E1CF1092360310929A
:101DA000350388EE93E0A0E0B0E080933703909392
:101DB0003803A0933903B0933A0323E132E0309320
:101DC0003403209333031092420310924103809313
:101DD000430390934403A0934503B093460325E245
:101DE00032E03093400320933F0345E351E05093AA
:101DF0004C0340934B0344E351E050934E03409314
:101E00004D0340E351E05093500340934F0341E3AF
:101E100051E0509352034093510342E351E05093F9
:101E200054034093530346E351E0509356034093C9
:101E30005503109258031092590310925A031092AE
:101E40005B031092DF031092DE038093E003909314
:101E5000E103A093E203B093E3033093DD03209307
:101E6000DC0345ED50E05093E9034093E80344ED73
:101E700050E05093EB034093EA0340ED50E0509361
:101E8000ED034093EC0341ED50E05093EF0340939A
:101E9000EE0342ED50E05093F1034093F00346ED22
:101EA00050E05093F3034093F2031092F503109225
:101EB000F6031092F7031092F80310927C0410922C
:101EC0007B0480937D0490937E04A0937F04B09361
:101ED000800430937A042093790485EC90E0909309
:101EE00086048093850484EC90E09093880480932A
:101EF000870480EC90E090938A048093890481ECBD
:101F000090E090938C0480938B0482EC90E090930B
:101F10008E0480938D0486EC90E0909390048093DF
:101F20008F041092920410929304109294041092D1
:101F300095048091070290910802A0910902B09146
:101F40000A0280930E0790930F07A0931007B09397
:101F5000110780910B0290910C02A0910D02B0919B
:101F60000E028093120790931307A0931407B09367
:101F7000150784E08093160787E080931707109277
:101F8000180784EB8093190786E180931A0788E18C
:101F900080931B0787E180931C0789E180931D07CD
:101FA000E0912406EC3008F4ABC08FEF80931E075D
:101FB000E0912406EC3008F4B4C08FEF80931F0743
:101FC0008CE08093ED0684E28093EE0686E08093B9
:101FD000EF0685E08093F0068FE18093F1068EE1B5
:101FE0008093F20683E28093F30682E28093F40604
:101FF00085E48093F50684E48093F60680E480937C
:10200000F9061092FE061092FF0610920007109239
:102010000107109202071092030710920407109212
:102020000507EFE2F6E08FEF9FEFDC0112821382EB
:1020300014821582168217821086118683879487F0
:10204000A587B6878787908BA18BB28B128611826A
:102050001082739626E0ED3EF20741F78DE090E0A6
:102060000E94C316FC011382128287E392E09183DF
:102070008083118687E2848384E1828784E083877A
:102080001486F0932C06E0932B0610922D061092E6
:102090002E0685E2809317051092190510922606E8
:1020A00010922506109228061092270610922A06F2
:1020B0001092290661E070E090E080E00E94E8174D
:1020C000009709F43FC0909326068093250610924E
:1020D0002806109227062091290630912A06232BE4
:1020E00011F4FC01108210922A06109229066FE367
:1020F00072E080912506909126060E94D21836C083
:1021000081E08E0F80932406E0931E0725E0E29F76
:10211000F0011124E851FA4F88EB9BE09283818310
:1021200047CF81E08E0F80932406E0931F0785E060
:10213000E89FF0011124E851FA4F88EB9BE092836D
:1021400081833ECF8091250690912606009711F05D
:102150000E945F17109226061092250610922A06FA
:1021600010922906109228061092270688E594E31B
:10217000A0E0B0E08093240790932507A093260762
:10218000B09327070895789484B5826084BD84B5A0
:10219000816084BD85B5826085BD85B5816085BD62
:1021A00080916E00816080936E001092810080911A
:1021B00081008260809381008091810081608093A2
:1021C0008100809180008160809380008091B100C7
:1021D00084608093B1008091B00081608093B000F2
:1021E0008091910082608093910080919100816044
:1021F0008093910080919000816080939000809105
:10220000A10082608093A1008091A10081608093F1
:10221000A1008091A00081608093A00080912101A5
:10222000826080932101809121018160809321014E
:102230008091200181608093200180917A008460E8
:1022400080937A0080917A00826080937A008091F6
:102250007A00816080937A0080917A008068809310
:102260007A001092C1000E94A4010E94A40161E0C2
:102270008091EE060E94780360E08091EE060E9455
:102280000B0360E08091ED060E94780383E393E006
:102290009093F8068093F706109298021092970296
:1022A00010921003109232030E94390383EF91E0E1
:1022B0009093BB028093BA0284EF91E09093BF02A7
:1022C0008093BE0280E090E1A0E0B0E08093FA0647
:1022D0009093FB06A093FC06B093FD068AE090E085
:1022E000A0E0B0E08093FE069093FF06A093000765
:1022F000B093010780E090E0A0E0B0E48093020793
:1023000090930307A0930407B093050760E070E182
:1023100085E00E94B5046FE979E380E00E94B5048E
:102320000FEE16E0CDEED6E050E4A52E52E0B52E2D
:1023300066E8862E62E0962E7BECE72E77E0F72E9D
:10234000D80112969C91F80181918F01898F9A8F03
:1023500061E00E94780361E08A8D0E9478036E013B
:10236000FDE1CF0ED11CD80115969C9115971396BF
:102370008C918D8F9E8F61E00E94780360E08E8D3E
:102380000E94780361E08D8D0E940B037FB6F89464
:1023900080916702811125C0F5018491F401949127
:1023A000E82FF0E0EE0FFF1FE354FE4FA591B4912C
:1023B0008C91982321F461E085E30E940B0361E096
:1023C00085E30E9478038CB580618CBD8CB58064F8
:1023D0008CBD61E084E30E94780361E083E30E94A6
:1023E0007803809167028F5F809367027FBEC70189
:1023F0000197F1F760E08D8D0E940B0388E80E9441
:102400009D0783E00E949D0761E08D8D0E940B0374
:10241000C7010197F1F7C6010E94A4072296F6E0D2
:10242000C13FDF0709F08CCF02E117E0CEE0D7E033
:1024300060E0D8018D918D010E947803B7E00631EC
:102440001B07B1F706E117E095E0F92E2CE0D22E3C
:1024500032E0E32EF801C1908F0187818C3008F0C3
:1024600046C061E08C2D0E947803D80117968C91AC
:10247000F89EF0011124E851FA4F2C2D2F73908112
:10248000907C922B9083138214826D2D0E94DF1515
:102490008D9DA001112430E020E0BA01620F731F6E
:1024A000F69EF001F79EF00D1124E851FA4F90814D
:1024B00096FD12C02F5F3F4F2C30310571F781110F
:1024C0000BC010928000E092810010928500109263
:1024D0008400E6BAE0926F00D8011796EC91FE9E58
:1024E000F0011124E851FA4F808180648083F80163
:1024F000958183818A8B9B8B60E00E94780361E0E9
:102500008B890E94780360E08B890E940B032296DE
:10251000F7E0C231DF0709F09DCFF8941092200157
:1025200089E08093210180E293E0909329018093D8
:102530002801109225011092240182E080937300FB
:1025400078948093160510921A058091170560E023
:102550000E94780360E084E00E94780360E085E0F8
:102560000E94780360E080E30E94780360E081E3EA
:102570000E94780382E090E090936B0280936A025D
:1025800081E090E090936D0280936C02109269025A
:102590001092680202E010E0C1E0D0E083E0282E53
:1025A000312C64E670E080E090E00E94EC04E09062
:1025B0006C02F0906D022AE0E216F1040CF0CDC13D
:1025C00081E30E94E202892B01F5C0906A02D0905B
:1025D0006B0232E0C316D10479F143E0C416D10492
:1025E00009F4CAC051E0C516D10409F70E94BD081C
:1025F0000E94420910936B0200936A020E94A20893
:10260000D0926902C0926802D2CF80E30E94E202B7
:10261000892BD9F2C70162E070E00E94EB150197A7
:1026200009F4B5C00E9442093FEFE31AF30AF092A1
:102630006D02E0926C02BBCFC0906802D09069023C
:1026400083E0C816D104D1F40E94A20881E30E945D
:10265000E202892B71F080E30E94E202892B49F0AB
:102660000E944209D0936B02C0936A020E94BD0887
:1026700055C00E94A2080E94EE09F2CF0E94BD0838
:1026800081E30E94E202892BE1F080E30E94E202F2
:10269000892BB9F00E94420930926B0220926A02A3
:1026A0000E94A20881E30E94E202892B09F05DC02A
:1026B0000E94A2080E94420910936B0200936A02D2
:1026C000C5CFCA94CD28A9F50E94BD080E94420931
:1026D0000E944209C701029790936D0280936C0299
:1026E0000E94A20881E30E94E202892BE1F40E9489
:1026F000BD080E9442090E944209B4E0EB1AF108A9
:10270000F0926D02E0926C020E94A2080E944209BF
:1027100030926B0220926A020E94A2081092690213
:102720001092680244CF80E30E94E202892BF9F202
:10273000EDCF4DEC5CEC6CE47EEB88E097E00E9422
:1027400076064DEC5CEC6CE47EEB86E097E00E9454
:1027500076068CE097E00E94CF0768377F408105BE
:102760009105BCF30E9485087BCF80E30E94E202C2
:10277000892B09F49DCFD2CF0E94A2080E94420962
:1027800010936B0200936A020E94BD0839CFF9E0F2
:10279000EF16F10409F446CF8AE097E00E94CF07D4
:1027A000C0902407D0902507E0902607F0902707D7
:1027B0009B01AC0188279927DC01821B930BA40B9A
:1027C000B50B8C159D05AE05BF050CF05FC08CE008
:1027D00097E00E94CF076C157D058E059F050CF0D4
:1027E00055C08AE097E00E94CF074B015C01C7010A
:1027F000B6010E94C2142B013C012DEC3CEC4CECC8
:102800005DE30E9421156B017C0166277727CB01D0
:10281000681979098A099B090E94C214A7019601C7
:102820000E94BB1487FD3EC08AE097E00E94CF075C
:1028300090958095709561957F4F8F4F9F4F0E9427
:10284000C2149B01AC01C701B6010E94BB1487FDF5
:1028500039C04AE959E969E17EEB88E097E00E94D6
:1028600076060E94D8082AE939E949E15EE30E9428
:102870001C16AB01BC0186E097E00E94760662E37D
:1028800070E080E090E00E94EC0486CF0E94850812
:1028900080916C0290916D02029690936D028093EC
:1028A0006C0285CE8CE097E00E94CF070E94C21494
:1028B0009B01AC01C701B6010E94BE1618160CF0B0
:1028C000B3CFC7CF8CE097E00E94CF070E94C2141D
:1028D0009B01AC01C701B6010E94BB1487FFB9CFB1
:1028E0008AE097E00E94CF076B017C0126E636E67E
:1028F00046E65FE3C301B2010E9421154B015C0172
:1029000066277727CB016C197D098E099F090E94E4
:10291000C214A50194010E94BB1487FF9ACF8CE0DA
:1029200097E00E94CF070E94C2149B01AC01C50131
:10293000B4010E94BE1618160CF08BCF40E050E098
:1029400060E87EEB88E097E00E9476060E94D80857
:1029500020E030E040E85EE38ACF0E9485080E94D4
:1029600051061FCE8091250690912606009711F002
:102970000C945F1708950E94FD1408F481E00895F7
:10298000E89409C097FB3EF4909580957095619509
:102990007F4F8F4F9F4F9923A9F0F92F96E9BB27BF
:1029A0009395F695879577956795B795F111F8CF3B
:1029B000FAF4BB0F11F460FF1BC06F5F7F4F8F4FA6
:1029C0009F4F16C0882311F096E911C0772321F09C
:1029D0009EE8872F762F05C0662371F096E8862F34
:1029E00070E060E02AF09A95660F771F881FDAF78B
:1029F000880F9695879597F90895990F0008550FB8
:102A0000AA0BE0E8FEEF16161706E807F907C0F074
:102A100012161306E407F50798F0621B730B840B7C
:102A2000950B39F40A2661F0232B242B252B21F456
:102A300008950A2609F4A140A6958FEF811D811DF6
:102A400008950E9434150C94A5150E94971538F02E
:102A50000E949E1520F0952311F00C948E150C9475
:102A6000941511240C94D9150E94B61570F3959FF6
:102A7000C1F3950F50E0551F629FF001729FBB2775
:102A8000F00DB11D639FAA27F00DB11DAA1F649F11
:102A90006627B00DA11D661F829F2227B00DA11DC4
:102AA000621F739FB00DA11D621F839FA00D611D4A
:102AB000221F749F3327A00D611D231F849F600D6B
:102AC000211D822F762F6A2F11249F5750409AF094
:102AD000F1F088234AF0EE0FFF1FBB1F661F771F20
:102AE000881F91505040A9F79E3F510580F00C94EB
:102AF0008E150C94D9155F3FE4F3983ED4F3869578
:102B000077956795B795F795E7959F5FC1F7FE2B8A
:102B1000880F911D9695879597F9089597F99F6766
:102B200080E870E060E008959FEF80EC0895002455
:102B30000A941616170618060906089500240A9422
:102B400012161306140605060895092E0394000CA8
:102B500011F4882352F0BB0F40F4BF2B11F460FF37
:102B600004C06F5F7F4F8F4F9F4F089557FD905860
:102B7000440F551F59F05F3F71F04795880F97FB41
:102B8000991F61F09F3F79F08795089512161306FB
:102B90001406551FF2CF4695F1DF08C0161617062A
:102BA0001806991FF1CF869571056105089408955F
:102BB000E894BB2766277727CB0197F90895991BDF
:102BC00079E004C0991F961708F0961B881F7A9524
:102BD000C9F78095089597FB072E16F4009407D047
:102BE00077FD09D00E94071607FC05D03EF49095AA
:102BF00081959F4F0895709561957F4F0895EE0FD1
:102C0000FF1F881F8BBF0790F691E02D1994AA1B18
:102C1000BB1B51E107C0AA1FBB1FA617B70710F0C7
:102C2000A61BB70B881F991F5A95A9F780959095F9
:102C3000BC01CD0108955058BB27AA270E94331626
:102C40000C94A5150E94971538F00E949E1520F04F
:102C500039F49F3F19F426F40C9494150EF4E09582
:102C6000E7FB0C948E15E92F0E94B61558F3BA179E
:102C7000620773078407950720F079F4A6F50C9492
:102C8000D8150EF4E0950B2EBA2FA02D0B01B9012B
:102C900090010C01CA01A0011124FF27591B99F0D2
:102CA000593F50F4503E68F11A16F040A22F232FDE
:102CB000342F4427585FF3CF469537952795A7952E
:102CC000F0405395C9F77EF41F16BA0B620B730BD5
:102CD000840BBAF09150A1F0FF0FBB1F661F771F46
:102CE000881FC2F70EC0BA0F621F731F841F48F4FB
:102CF000879577956795B795F7959E3F08F0B0CF84
:102D00009395880F08F09927EE0F9795879508956A
:102D10000E948F166894B1110C94D91508950E94E1
:102D2000BE1588F09F5798F0B92F9927B751B0F08A
:102D3000E1F0660F771F881F991F1AF0BA95C9F73F
:102D400014C0B13091F00E94D815B1E008950C94F0
:102D5000D815672F782F8827B85F39F0B93FCCF3A3
:102D6000869577956795B395D9F73EF490958095BC
:102D7000709561957F4F8F4F9F4F08950E94FD146E
:102D800008F48FEF08950F931F93CF93DF93823052
:102D9000910510F482E090E0E0912A07F0912B0772
:102DA00030E020E0B0E0A0E0309799F42115310543
:102DB00009F44AC0281B390B24303105D8F58A8123
:102DC0009B816115710589F1FB0193838283FE016B
:102DD00011C0408151810281138148175907E0F0E9
:102DE0004817590799F4109761F012960C931297AF
:102DF00013961C933296CF01DF91CF911F910F91C3
:102E0000089500932A0710932B07F4CF211531055D
:102E100051F04217530738F0A901DB019A01BD01B7
:102E2000DF01F801C1CFEF01F9CF90932B07809319
:102E30002A07CDCFFE01E20FF31F81939193225019
:102E4000310939832883D7CF20912807309129076A
:102E5000232B41F42091030230910402309329077F
:102E6000209328072091010230910202211531059B
:102E700041F42DB73EB74091050250910602241B44
:102E8000350BE0912807F0912907E217F307A0F42A
:102E90002E1B3F0B2817390778F0AC014E5F5F4FB0
:102EA0002417350748F04E0F5F1F509329074093B2
:102EB0002807819391939FCFF0E0E0E09CCFCF93E0
:102EC000DF930097E9F0FC01329713821282A09100
:102ED0002A07B0912B07ED0130E020E01097A1F414
:102EE00020813181820F931F20912807309129077B
:102EF0002817390709F061C0F0932907E0932807E4
:102F0000DF91CF910895EA01CE17DF07E8F54A81F6
:102F10005B819E0141155105B1F7E901FB83EA830D
:102F200049915991C40FD51FEC17FD0761F48081B9
:102F300091810296840F951FE9019983888382818C
:102F400093819B838A83F0E0E0E012968D919C91BF
:102F500013970097B9F52D913C911197CD010296E9
:102F6000820F931F209128073091290728173907CE
:102F700039F6309751F510922B0710922A07B0932B
:102F80002907A0932807BCCFD383C28340815181F6
:102F9000840F951FC817D90761F44E5F5F4F888172
:102FA0009981480F591F518340838A819B81938364
:102FB00082832115310509F0B0CFF0932B07E09300
:102FC0002A079ECFFD01DC01C0CF13821282D7CF2A
:102FD0004F925F926F927F928F929F92AF92BF9229
:102FE000CF92DF92EF92FF920F931F93CF93DF93D5
:102FF0008C01009799F4CB01DF91CF911F910F9134
:10300000FF90EF90DF90CF90BF90AF909F908F9008
:103010007F906F905F904F900C94C316FC01E60F69
:10302000F71F9C0122503109E217F30708F4AEC0E4
:10303000D901CD91DC911197C617D70720F1C53082
:10304000D10578F0CE0104978617970750F0C61B7C
:10305000D70B2297C193D1936D937C93CF010E949C
:103060005F17C801DF91CF911F910F91FF90EF90F3
:10307000DF90CF90BF90AF909F908F907F906F9098
:103080005F904F9008955B01AC1ABD0A4C018C0E05
:103090009D1EA0912A07B0912B07512C412CF12C99
:1030A000E12C109731F58091280790912907881518
:1030B000990509F05CC04616570608F058C0809183
:1030C000010290910202009741F48DB79EB74091A2
:1030D000050250910602841B950BE817F90708F0CA
:1030E00055C0F0932907E0932807F90171836083A5
:1030F000B8CF8D919C91119712966C901297139660
:103100007C901397A815B90559F56C0142E0C40EDF
:10311000D11CCA14DB0420F1AC014A195B09DA01A5
:103120001296159780F06282738251834083D90191
:103130006D937C93E114F10471F0D7011396FC9325
:10314000EE9312978ECF22968C0F9D1FF9019183DB
:103150008083F301EFCFF0932B07E0932A0781CF11
:103160004816590608F42C017D01D3019ACFCB01F2
:103170000E94C3167C01009749F0AE01B8010E947D
:10318000C918C8010E945F1787016BCF10E000E0EB
:1031900068CFFB01DC0102C001900D92415050400C
:1031A000D8F70895FB01DC0101900D920020E1F7B2
:1031B000089511E0C0E7D1E000E006C0802FFE01D5
:1031C0000E94FF152196011DC137D10780E0080735
:0631D000A9F7F894FFCFFF
:1031D600FF00002C078000363738391B1D1A1C00EB
:1031E6000000004C021F024908F50118020502F60C
:1031F6000100000000E1051E0564052E0695057315
:103206000587050000000061081E054908480800FA
:00000001FF
