:100000000C9471010C94A2010C94A2010C94A20115
:100010000C94A2010C94A2010C94A2010C94A201D4
:100020000C94A2010C94070C0C94070C0C94070C74
:100030000C94A2010C947F0D0C94A2010C94A201CB
:100040000C94A2010C94D80F0C94A2010C94A20160
:100050000C94A2010C94A2010C94A2010C94350DF5
:100060000C94A2010C94EE0E0C94C40E0C94A201FC
:100070000C94A2010C94A2010C94A2010C94A20174
:100080000C94A2010C94A2010C94A2010C94A20164
:100090000C94A2010C94A2010C94A2010C94110CDA
:1000A0000C94A2010C94A2010C94A2010C94A20144
:1000B0000C94A2010C94A2010C94A2010C94180FB0
:1000C0000C94A2010C94A2010C94A2010C949A0E1F
:1000D0000C94700E0C94A2010C94460E0C941C0E01
:1000E0000C94A2010C9405020C94A3020C94A40598
:1000F0000C94FE050C9460070C944E070C949F0220
:100100000C941F020C9466080C94A7020C94C6026F
:100110000C9423070C9480100C9446070C949902BD
:100120000C94D0020C94F3010C94C2020C941802AB
:100130000C94AB070C94F6010C9430170C94120736
:100140000C94F5010C94D4020C943B050C948D078F
:100150000C94B4020C9456070C9432070C94B80219
:100160000C943C070C94CC020C94AB020C949005BC
:100170000C9497070C94DA020C946A070C94BE0254
:100180000C94AE020C947E080C9483070C944C02E1
:100190000C94F4010C9481050C9465080C944B06A6
:1001A0000C94D9020C9474070C94B5070C94DE02DD
:1001B0000C94B2050C94A1070C94280702000021AE
:1001C00000240027002A002D003000330001010028
:1001D00000040107010A0100002200250028002B6D
:1001E000002E003100340002010000050108010B5F
:1001F00001000020002300260029002C002F0032DF
:1002000000000100000301060109010505050507BD
:100210000508080808020202020A0A080804040481
:1002200004010101010101010103030303030303AD
:1002300003040707070C0C0C0C0C0C0C0C0202023C
:100240000206060606060606060B0B0B0B0B0B0B2F
:100250000B010210202008081020401020408002CE
:1002600001020108040201010204081020408080FC
:100270004020100804020180040201804020100880
:100280000402010804020101020408102040800158
:100290000204081020408000000A0B02090C0D0E19
:1002A0000807030401000000000000000000000037
:1002B000000000000000000000000000000000003E
:1002C00000000012111000000000000000000000FB
:1002D000000000000000000000000000000080108E
:1002E000301711241FBECFEFD1E2DEBFCDBF00E03B
:1002F0000CBF12E0A0E0B2E0E4E0F8E300E00BBFE6
:1003000002C007900D92AE34B107D9F727E0AEE4F2
:10031000B2E001C01D92AE33B207E1F711E0C0E7D1
:10032000D1E000E006C021970109802FFE010E9464
:100330009F18CF36D10780E00807A9F70E947612F0
:100340000C94F01B0C940000EBE8F4E0A089B18958
:1003500082E08C93A485B5851C92A685B7858FEC29
:100360008C93108EA489B58986E08C93A289B38979
:100370008C9180618C93A289B3898C9188608C93D5
:10038000A289B3898C9180688C930288F389E02DCF
:1003900080818F7D808308952091CE02260F3327A0
:1003A000331F21323105ECF420911B03FC0190E056
:1003B00080E0243069F082E00895A091CE0221917E
:1003C000AC0144555D4FA40FB52FB11D2C93019680
:1003D000861798F38091CE02680F6093CE0280E07A
:1003E000089581E00895089508950895E091AA027E
:1003F0008091A902E81730F4F0E0E757FD4F8081C3
:1004000090E008958FEF9FEF08959091AA02809158
:10041000A9022FEF3FEF981748F4E92FF0E0E757D4
:10042000FD4F208130E09F5F9093AA02C90108959B
:100430008091A9029091AA02891B990B0895CF92ED
:10044000DF92EF92FF920F931F93CF93DF937C0184
:10045000CB018A0120912103222389F0EB016B015A
:10046000C40ED51ECC15DD0569F06991D701ED915B
:10047000FC910190F081E02DC7011995F3CF642F15
:100480000E94CC01C801DF91CF911F910F91FF9085
:10049000EF90DF90CF900895CF93DF931F92CDB769
:1004A000DEB76983209121032223F9F020914403D0
:1004B000203258F021E030E0FC013383228390E0C9
:1004C00080E00F90DF91CF91089580912203E82F73
:1004D000F0E0ED5DFC4F998190838F5F8093220364
:1004E0008093440381E090E0ECCF61E0CE0101967F
:1004F0000E94CC01F7CF8150823108F05AC0E82F1A
:10050000F0E08827E957FD4F8F4F0C949F18A70202
:10051000AB0299029F02A302D902AE02B402B80252
:10052000BE02C202C602CC02D002D902D402DA0252
:10053000DE02809180008F77809380000895809103
:1005400080008F7DF9CF80918000877FF5CF84B5C3
:100550008F7784BD089584B58F7DFBCF8091B000E7
:100560008F778093B00008958091B0008F7DF9CF90
:10057000809190008F7780939000089580919000F3
:100580008F7DF9CF80919000877FF5CF8091A0007B
:100590008F778093A00008958091A0008F7DF9CF80
:1005A0008091A000877FF5CF809120018F77809385
:1005B00020010895809120018F7DF9CF8091200145
:1005C000877FF5CFCF93DF93282F30E0F901E956ED
:1005D000FD4F8491F901EF5AFD4FD491F901E55F88
:1005E000FD4FC491CC23A1F081110E947B02EC2F1E
:1005F000F0E0EE0FFF1FEF50FE4FA591B491EC918C
:10060000ED2381E090E009F480E0DF91CF9108953F
:1006100080E090E0FACF1F93CF93DF93282F30E054
:10062000F901E956FD4F8491F901EF5AFD4FD4913C
:10063000F901E55FFD4FC491CC23A9F0162F81117C
:100640000E947B02EC2FF0E0EE0FFF1FE952FE4FFD
:10065000A591B4918FB7F894EC91111108C0D09581
:10066000DE23DC938FBFDF91CF911F910895DE2BA6
:10067000F8CF10921B0381E080931A031092F502C9
:1006800061E084E10E940B0361E085E10E940B03BD
:10069000E9EBF0E080818E7F808380818D7F808395
:1006A00088E48093B80085E48093BC000895CF93DC
:1006B000DF9391E09093AB028823B9F0C091B8002A
:1006C000D091BA008091BC008A7B8093BC0060E02E
:1006D00084E10E940B0360E085E10E940B030E940D
:1006E0003903D093BA00C093B800DF91CF91089539
:1006F000CF93DF9390E0FC01EF5AFD4F2491855F8B
:100700009D4FFC0184918823D1F090E0880F991FC0
:10071000FC01E354FE4FA591B491FC01E952FE4F58
:10072000C591D49161110EC09FB7F8948C91E22FBE
:10073000E0958E238C932881E223E8839FBFDF918D
:10074000CF9108958FB7F894EC91E22BEC938FBF83
:10075000F6CF863308F0865320917B00982F98704F
:10076000277F922B90937B008770806480937C001E
:1007700080917A00806480937A0080917A0086FD6F
:10078000FCCF809178009091790008953FB7F8945C
:100790008091850290918602A0918702B091880293
:1007A00026B5A89B05C02F3F19F00196A11DB11DCC
:1007B0003FBFBA2FA92F982F8827BC01CD01620F08
:1007C000711D811D911D42E0660F771F881F991FC3
:1007D0004A95D1F70895CF92DF92EF92FF920F934F
:1007E0001F93CF93DF93D091440381E0D13208F07F
:1007F0009CC0C09143030E94C6036B017C018091A1
:100800001B0381116CC082E080931B0381E0809305
:100810001A038FEF8093190310921803D0931703D4
:10082000A3E2B3E0E7EFF2E080E0D8138DC01092CE
:10083000F6028091F602CC0FC82BC093F60280918D
:10084000F502813009F084C01092F5020E94C603BF
:100850006B017C018091F6028093BB0080911D03A7
:1008600090911E03A0911F03B0912003892B8A2B26
:100870008B2BA1F00E94C60300911D0310911E0353
:1008800020911F03309120036C197D098E099F0967
:10089000061717072807390708F442C08091BC00E3
:1008A00083FDD8CF85EC8093BC000E94C6036B010A
:1008B0007C0180911B03823009F44CC080911903A4
:1008C0008F3F09F469C080911903803209F466C032
:1008D00080911903803309F463C084E026C08091BD
:1008E0001D0390911E03A0911F03B0912003892B3B
:1008F0008A2B8B2B09F483CF0E94C60300911D0322
:1009000010911E0320911F03309120036C197D0963
:100910008E099F09061717072807390708F06FCFB8
:1009200080911C030E94570385E0109222031092CD
:10093000440310922103DF91CF911F910F91FF90FB
:10094000EF90DF90CF9008959D9191938F5F6DCF41
:1009500085EEA9CF80911D0390911E03A0911F03E6
:10096000B0912003892B8A2B8B2B09F4A2CF0E94F4
:10097000C60300911D0310911E0320911F033091A7
:1009800020036C197D098E099F0906171707280790
:10099000390708F08ECFC4CF80E0C7CF82E0C5CF43
:1009A00083E0C3CF0F931F93CF93DF93162F072FAF
:1009B000CFEFD6E0AA85BB859C8521E0209321035B
:1009C000909343031092220310924403ED91FC9103
:1009D00011970190F081E02D682FCD0119958A853E
:1009E0009B85DC01ED91FC910190F081E02D602F61
:1009F00019958A859B85DC01ED91FC910190F08130
:100A0000E02D612F1995DF91CF911F910F910C94DB
:100A1000EB038F929F92AF92BF92CF92DF92EF92B1
:100A2000FF924B015C010E94C6036B017C010E9496
:100A3000C6036C197D098E099F09683E73408105C4
:100A40009105A8F321E0821A9108A108B10888EE67
:100A5000C80E83E0D81EE11CF11C81149104A1048E
:100A6000B10429F7FF90EF90DF90CF90BF90AF9047
:100A70009F908F900895AF92BF92CF92DF92EF92A6
:100A8000FF920F931F93CF93DF936C017B018B0138
:100A9000040F151FEB015E01AE18BF08C017D10788
:100AA00059F06991D601ED91FC910190F081E02D12
:100AB000C6011995892B79F7C501DF91CF911F9157
:100AC0000F91FF90EF90DF90CF90BF90AF9008957F
:100AD000FC01A089B1898C91A689B78982FD0FC0DC
:100AE0009C91818D8F5F8F73228D821749F0A18D2C
:100AF000AE0FBF2FB11D5D969C93818F08958C9191
:100B00000895FC01538D448D252F30E0842F90E013
:100B1000821B930B541710F0CF96089501970895F8
:100B2000FC01918D828D981761F0A28DAE0FBF2FC1
:100B3000B11D5D968C91928D9F5F9F73928F90E017
:100B400008958FEF9FEF0895FC01918D828D981786
:100B500031F0828DE80FF11D858D90E008958FEFC3
:100B60009FEF0895FC01918D228D892F90E0805C8C
:100B70009F4F821B91098F739927089581E593E018
:100B80000E94B20521E0892B09F420E0822F08950C
:100B90008EEE93E00E94B20521E0892B09F420E05B
:100BA000822F08958BE894E00E94B20521E0892B02
:100BB00009F420E0822F0895FC01A48DA80FB92F1D
:100BC000B11DA35ABF4F2C91848D90E001968F7375
:100BD0009927848FA689B7892C93A089B1898C9194
:100BE000837080648C93938D848D981306C00288E3
:100BF000F389E02D80818F7D80830895EF92FF92AD
:100C00000F931F93CF93DF93EC0181E0888F9B8D2F
:100C10008C8D98131AC0E889F989808185FF15C0E9
:100C20009FB7F894EE89FF896083E889F98980810C
:100C30008370806480839FBF81E090E0DF91CF91DB
:100C40001F910F91FF90EF900895F62E0B8D10E0FD
:100C50000F5F1F4F0F731127E02E8C8D8E110CC06C
:100C60000FB607FCFACFE889F989808185FFF5CFB7
:100C7000CE010E94DC05F1CFEB8DEC0FFD2FF11DB5
:100C8000E35AFF4FF0829FB7F8940B8FEA89FB89F4
:100C900080818062CFCFCF93DF93EC01888D882352
:100CA000B9F0AA89BB89E889F9898C9185FD03C0CF
:100CB000808186FD0DC00FB607FCF7CF8C9185FFB4
:100CC000F2CF808185FFEDCFCE010E94DC05E9CF18
:100CD000DF91CF910895F0E0E0E0199480E090E09A
:100CE000892B29F00E94D20581110E94000080E02A
:100CF00090E0892B49F080E090E0892B29F00E9458
:100D0000000081110E9400000E94C80581110E940C
:100D10006B0680E090E0892B29F00E94BE058111CE
:100D20000C94000008958F929F92AF92BF92CF9241
:100D3000DF92EF92FF920F931F93CF93DF93EC011B
:100D40006A017B0120E030E04FE753E4CB01B601BC
:100D50000E949F174B015C0120E030E0A9010E9436
:100D6000D01918168CF5C501B4010E949A198B018F
:100D7000B98020E030E0A901C701B6010E94D01976
:100D800060E018160CF061E08B2D0E940B030F3F02
:100D9000110509F0ECF41127C88161E08C2F0E9445
:100DA000780301151105B9F460E08C2FDF91CF9124
:100DB0001F910F91FF90EF90DF90CF90BF90AF9079
:100DC0009F908F900C940B03C501B4019058CDCF28
:100DD0000FEF10E0E1CF0F3F110511F461E0E5CF17
:100DE000EC2FF0E0E956FD4FE491E150E23108F0DC
:100DF000BCC0F0E08827E050F94F8F4F0C949F184B
:100E000012072307280732073C07B50746074E0796
:100E1000560760076A07740783078D07B5079707AA
:100E2000A107AB0784B5806884BD07BDDF91CF9172
:100E30001F910F91FF90EF90DF90CF90BF90AF90F8
:100E40009F908F90089584B5806284BD08BDEECFD9
:100E500080918000806880938000109389000093C7
:100E60008800E4CF8091800080628093800010939E
:100E70008B0000938A00DACF809180008860809395
:100E8000800010938D0000938C00D0CF8091B00033
:100E900080688093B0000093B300C8CF8091B00009
:100EA00080628093B0000093B400C0CF8091900026
:100EB0008068809390001093990000939800B6CFBB
:100EC0008091900080628093900010939B0000932B
:100ED0009A00ACCF8091900088608093900010932E
:100EE0009D0000939C00A2CF8091A0008068809319
:100EF000A0008091A0008F7B8093A0001093A90098
:100F00000093A80093CF8091A00080628093A000FE
:100F10001093AB000093AA0089CF8091A000886055
:100F20008093A0001093AD000093AC007FCF809120
:100F300020018068809320011093290100932801EB
:100F400075CF8091200180628093200110932B0146
:100F500000932A016BCF809120018860809320014B
:100F600010932D0100932C0161CF003811050CF076
:100F700035CF1ACF8EBD00000DB407FEFDCF8EB564
:100F80000895CF93DF93EC0160E088810E940B030A
:100F900088E90E94BA0780E00E94BA0780E00E94B8
:100FA000BA0780E00E94BA0780E00E94BA0761E0B9
:100FB00088810E940B038BE891E00197F1F760E0D4
:100FC00088810E940B0380EE0E94BA0761E088814D
:100FD000DF91CF910C940B03AF92BF92CF92DF922F
:100FE000EF92FF920F931F93CF93DF93CDB7DEB7AE
:100FF00060970FB6F894DEBF0FBECDBF6C0160E006
:10100000FC0180810E940B0380E60E94BA079E01CA
:101010002F5F3F4F79015E0131E1A30EB11C8701C3
:1010200080E00E94BA0790E0B0E0A0E0F801819370
:101030009193A193B1938F01EA15FB0589F761E0C4
:10104000F60180810E940B0380E090E0DC01F70153
:1010500041915191619171917F01BA2FA92F982FE0
:101060008827840F951FA61FB71FE017F10779F790
:101070009C01AD0166277727CB01621B730B840BA4
:10108000950B60960FB6F894DEBF0FBECDBFDF9113
:10109000CF911F910F91FF90EF90DF90CF90BF9075
:1010A000AF900895FC01248131E030932103209317
:1010B000430310922203109244038485682B85E435
:1010C00093E00E944C020C94EB03089590E080E0C2
:1010D00008950F931F93CF938C01C62F64600E94D5
:1010E00052086C2F6B7FC8010E94520883EC90E07D
:1010F0000197F1F7CF911F910F9108950F931F93CF
:10110000CF93DF938C01C62FD62FD07FD1606D2F68
:101110000E9452086D2FC8010E94690880E1C89F93
:10112000E0011124C1606C2FC8010E9452086C2F8D
:10113000C8010E94690881E090E0DF91CF911F9182
:101140000F91089540E050E060E070E88AE197E098
:101150000E94930640E050E0BA0188E197E00E94C7
:10116000930664E670E080E090E00E9409058CE15F
:1011700097E00E94C1078EE197E00C94C107FC0143
:1011800001900020E9F73197AF01481B590BBC01D2
:101190008BE894E00C943B058F929F92AF92BF92A4
:1011A0000F931F93CF93DF93CDB7DEB7A1970FB601
:1011B000F894DEBF0FBECDBF19A2423008F44AE05A
:1011C0008E010F5D1F4F842E912CB12CA12CA501F7
:1011D00094010E945D18E62FB901CA01EA30F4F4C7
:1011E000E05DD801EE938D01232B242B252B79F77D
:1011F00090E080E0109719F0CD010E94BF08A19601
:101200000FB6F894DEBF0FBECDBFDF91CF911F9117
:101210000F91BF90AF909F908F900895E95CE1CFC0
:101220004F925F926F927F928F929F92AF92BF92F6
:10123000CF92DF92EF92FF920F931F93CF936B01A8
:101240007C01742EAC019B010E94D519882399F072
:101250008FE392E0CF911F910F91FF90EF90DF907D
:10126000CF90BF90AF909F908F907F906F905F9046
:101270004F900C94BF0846015701E894B7F82FEF40
:101280003FEF4FE75FE7C501B4010E94D519811117
:101290000DC02FEF3FEF4FE75FE7C501B4010E949C
:1012A000391718161CF483E492E0D4CF2FEF3FEFE8
:1012B0004FE75FE4C701B6010E94D01918161CF46D
:1012C00087E492E0C7CF2FEF3FEF4FE75FECC70116
:1012D000B6010E94391787FDF3CF20E030E0A90165
:1012E000C701B6010E94391710E000E087FF0AC06D
:1012F0006DE28BE894E00E94FE058C01F7FAF09411
:10130000F7F8F094C0E060E070E080E09FE37C16C6
:1013100041F020E030E040E251E40E942819CF5F24
:10132000F6CFA70196010E94BC182B013C010E9438
:10133000A1194B015C014AE00E94CC087C01E00E3F
:10134000F11ECC23C1F1C501B4010E943E179B01DF
:10135000AC01C301B2010E94BB184B015C016EE2FB
:101360008BE894E00E94FE05E80EF91EC15018F1CA
:1013700020E030E040E251E4C501B4010E949F1733
:101380002B013C010E94A1194B01B12CA12C4AE078
:10139000C501B4010E94CC08E80EF91EC501B401D4
:1013A0000E943E179B01AC01C301B2010E94BB1811
:1013B0004B015C01DBCFC701CF911F910F91FF90D3
:1013C000EF90DF90CF90BF90AF909F908F907F90E5
:1013D0006F905F904F9008958F929F92AF92BF92BF
:1013E000CF92DF92EF92FF928FB7F89440918102F3
:1013F0005091820260918302709184028FBF8CE1D0
:1014000097E00E94EC0797FF7BC08CE197E00E9479
:10141000EC07CC24DD247601C61AD70AE80AF90ABB
:10142000C0926F02D0927002E0927102F09272024A
:101430008EE197E00E94EC071616170618061906AB
:101440000CF065C08EE197E00E94EC076C197D09F5
:101450008E099F090E9440174B015C0120916B028D
:1014600030916C0240916D0250916E020E94BC1846
:101470006B017C01C0926B02D0926C02E0926D0213
:10148000F0926E0227E137EB41E558E3C501B40164
:101490000E949F174B015C012CE933E549E456E3B8
:1014A000C701B6010E949F179B01AC01C501B401A1
:1014B0000E94BC1820E030E040EA51E40E949F17EF
:1014C00060936702709368028093690290936A0246
:1014D0004AE00E9410098BE492E00E94BF086091EC
:1014E0006702709168028091690290916A02FF9090
:1014F000EF90DF90CF90BF90AF909F908F90089526
:101500008CE197E00E94EC076B017C0189CF8EE1B2
:1015100097E00E94EC0790958095709561957F4FBC
:101520008F4F9F4F93CF4EEA57E461E67EEB8AE1FF
:1015300097E00E9493060E94EC092EEA37E441E608
:101540005EE30E94BC18AB01BC01705888E197E0D3
:101550000E9493068EE197E00E94EC076F38774077
:1015600081059105BCF30C94A2084EEA57E461E6AC
:101570007EE38AE197E00E9493060E94EC092EEA3E
:1015800037E441E65EE30E94BC18AB01BC0188E190
:1015900097E00E9493068CE197E00E94EC076E387A
:1015A000784F8F4F9F4FBCF70C94A2084AE959E936
:1015B00069E17EEB8AE197E00E9493064AE959E9E6
:1015C00069E17EE388E197E00E94930664E670E0BB
:1015D00080E090E00E9409058CE197E00E94EC0712
:1015E0006730764E8F4F9F4F0CF44BC08EE197E0E3
:1015F0000E94EC076A3F7941810591050CF041C0DA
:101600008CE197E00E94EC0790958095709561952C
:101610007F4F8F4F9F4F0E94401720E030E446E2FB
:1016200054E40E94391787FD2EC08CE197E00E9498
:10163000EC0790958095709561957F4F8F4F9F4FE8
:101640000E94401720E030E446E254E40E94D019A2
:10165000181644F14AE959E969E17EEB8AE197E01D
:101660000E9493060E94EC092AE939E949E15EE308
:101670000E94BC18AB01BC0188E197E00E94930670
:10168000ABCF0C94A2088EE197E00E94EC070E9479
:10169000401720E030E446E254E40E94391787FF07
:1016A000C4CFD8CF8EE197E00E94EC070E9440178C
:1016B00020E030E446E254E40E94D019181654F6B3
:1016C0008CE197E00E94EC0790958095709561956C
:1016D0007F4F8F4F9F4F0E94401720E030E446EA33
:1016E00055E40E94391787FFB5CF8EE197E00E943D
:1016F000EC070E94401720E030E446EA55E40E94DF
:10170000391787FFA7CF4AE959E969E97EEB8AE1F2
:1017100097E00E9493060E94EC092AE939E949E919
:101720005EE3A6CF0E94D60A80917E0290917F024E
:10173000019790937F0280937E020E94D60A809147
:101740007E0290917F02019790937F0280937E02A8
:101750000E94B50A81E30E94E202892BD1F40E9423
:10176000930A0E94D60A80917E0290917F0201978F
:1017700090937F0280937E020E94D60A80917E021F
:1017800090917F02019790937F0280937E020C9448
:10179000B50A80E30E94E202892B09F3089585EDE2
:1017A0008093BC0080911D0390911E03A0911F03A4
:1017B000B09120030796A11DB11D23E0B695A79512
:1017C000979587952A95D1F72091BC0024FD03C0F9
:1017D00010921B03089540911D0350911E036091C8
:1017E0001F0370912003452B462B472B69F300976D
:1017F000A105B10541F025E32A95F1F70000019715
:10180000A109B109E1CF80911C030C9457031F92E9
:101810000F920FB60F9211240F900FBE0F901F90D2
:1018200018951F920F920FB60F9211240BB60F92BC
:101830002F933F934F935F936F937F938F939F93D8
:10184000AF93BF93EF93FF938091B900887F803669
:1018500009F44DC008F040C0883209F4A9C028F549
:10186000803109F49DC0C8F4882309F4FBC0883096
:1018700009F496C0FF91EF91BF91AF919F918F9125
:101880007F916F915F914F913F912F910F900BBE80
:101890000F900FBE0F901F901895883109F488C0E3
:1018A000803241F78093190314C0803409F49DC03D
:1018B00040F48033B9F38833E9F68093190385EC5B
:1018C000B0C0803509F485C0883509F496C08834E5
:1018D00089F60E94CF0BCECF883909F48CC038F539
:1018E000883729F050F4883611F0803719F683E0F4
:1018F00080931B031092F20257C0883809F47BC012
:10190000803919F0803809F0B5CF8091F202803229
:1019100008F071C0E091F20281E08E0F8093F20234
:101920008091BB00F0E0EE52FD4F80833DC0803BD4
:1019300039F0E0F4803A09F479C0883A09F09ACF96
:1019400084E080931B031092CF021092CE02E091AC
:10195000CC02F091CD0219958091CE0281110FC079
:1019600081E08093CE021092AC0209C0803C09F461
:10197000A6CF883C09F4A3CF883B09F07BCFE09148
:10198000CF0281E08E0F8093CF02F0E0E455FD4F4F
:1019900080818093BB009091CF028091CE0229C0BC
:1019A0008091F6028093BB0085EC8093BC0062CFEF
:1019B0009091180380911703981758F5E091180338
:1019C00081E08E0F80931803F0E0E950FD4F808195
:1019D000E9CFE091180381E08E0F80931803809186
:1019E000BB00F0E0E950FD4F808390911803809197
:1019F00017039817C8F285E8D8CFE091180381E063
:101A00008E0F809318038091BB00F0E0E950FD4FEA
:101A1000808380911A0381115CCF81E08093F5026D
:101A200084EA8093BC0010921B0324CF85EC809342
:101A3000BC0010921B038091F202803230F4E091DE
:101A4000F202F0E0EE52FD4F10826091F20270E07F
:101A5000E091D002F091D10282ED92E019951092BE
:101A6000F20208CF1092190334CF1F920F920FB6D3
:101A70000F9211242F933F938F939F93AF93BF9314
:101A80008091810290918202A0918302B0918402A0
:101A90003091800223E0230F2D3758F50196A11DC8
:101AA000B11D209380028093810290938202A093C3
:101AB0008302B09384028091850290918602A09166
:101AC0008702B09188020196A11DB11D8093850205
:101AD00090938602A0938702B0938802BF91AF9142
:101AE0009F918F913F912F910F900FBE0F901F905C
:101AF000189526E8230F0296A11DB11DD2CF1F9283
:101B00000F920FB60F9211240BB60F922F933F93A3
:101B10004F935F936F937F938F939F93AF93BF93F5
:101B2000EF93FF938091750290917602A0917702D6
:101B3000B0917802892B8A2B8B2BD1F19091740272
:101B40008091000089278093000080917502909118
:101B50007602A0917702B0917802181619061A063B
:101B60001B069CF48091750290917602A0917702F9
:101B7000B09178020197A109B10980937502909301
:101B80007602A0937702B0937802FF91EF91BF9114
:101B9000AF919F918F917F916F915F914F913F9105
:101BA0002F910F900BBE0F900FBE0F901F901895A6
:101BB00080910002ECEBF1E0E4919FEF9093000242
:101BC000E230E9F040F4EE2389F0E13091F060E09A
:101BD0000E940B03DACFE43049F110F1E530B9F798
:101BE000909173009D7F90937300F1CF10926E00DF
:101BF000EECF90916F009D7F90936F00E8CF909112
:101C000070009D7F9093700091E09093B000909150
:101C1000B100987F94609093B1001092B300D7CF39
:101C2000909171009D7F90937100D1CF909172003F
:101C30009D7F90937200CBCF1F920F920FB60F92A1
:101C400011240BB60F922F933F934F935F936F9393
:101C50007F938F939F93AF93BF93EF93FF9381E510
:101C600093E00E94DC05FF91EF91BF91AF919F91AE
:101C70008F917F916F915F914F913F912F910F9035
:101C80000BBE0F900FBE0F901F9018951F920F92D2
:101C90000FB60F9211240BB60F922F933F934F93D1
:101CA0005F936F937F938F939F93AF93BF93EF93C4
:101CB000FF9381E593E00E946805FF91EF91BF914A
:101CC000AF919F918F917F916F915F914F913F91D4
:101CD0002F910F900BBE0F900FBE0F901F90189575
:101CE0001F920F920FB60F9211240BB60F922F93E3
:101CF0003F934F935F936F937F938F939F93AF9394
:101D0000BF93EF93FF938EEE93E00E94DC05FF916B
:101D1000EF91BF91AF919F918F917F916F915F9163
:101D20004F913F912F910F900BBE0F900FBE0F90D0
:101D30001F9018951F920F920FB60F9211240BB699
:101D40000F922F933F934F935F936F937F938F9354
:101D50009F93AF93BF93EF93FF938EEE93E00E9418
:101D60006805FF91EF91BF91AF919F918F917F9106
:101D70006F915F914F913F912F910F900BBE0F90FC
:101D80000FBE0F901F9018951F920F920FB60F92D3
:101D900011240BB60F922F933F934F935F936F9342
:101DA0007F938F939F93AF93BF93EF93FF938BE8B2
:101DB00094E00E94DC05FF91EF91BF91AF919F915C
:101DC0008F917F916F915F914F913F912F910F90E4
:101DD0000BBE0F900FBE0F901F9018951F920F9281
:101DE0000FB60F9211240BB60F922F933F934F9380
:101DF0005F936F937F938F939F93AF93BF93EF9373
:101E0000FF938BE894E00E946805FF91EF91BF91EA
:101E1000AF919F918F917F916F915F914F913F9182
:101E20002F910F900BBE0F900FBE0F901F90189523
:101E30001F920F920FB60F9211240BB60F922F9391
:101E40003F934F935F936F937F938F939F93AF9342
:101E5000BF93EF93FF93809129050E94E2022091A6
:101E60002D0530912E052F5F3F4F30932E05209387
:101E70002D0590912C05953618F096E09093280545
:101E800090912805943009F466C0B8F49230F1F0CE
:101E9000933009F444C090912B05992309F46BC049
:101EA00081117CC080912A05882309F463C0809148
:101EB0002A0561E00E940B035EC0953009F457C00B
:101EC000963049F791E09093F9054FC08111E3CF27
:101ED00020912D0530912E052436310528F41092DD
:101EE0002E0510922D05D7CF1092F90510922C05D2
:101EF000E0912C0591E09E0F90932C05F0E020914D
:101F00002D0530912E05EE0FFF1FE85DFA4F30874B
:101F1000278310922E0510922D0593E019C0813071
:101F200009F0B9CFE0912C0591E09E0F90932C051C
:101F3000F0E020912D0530912E05EE0FFF1FE85D9A
:101F4000FA4F3087278310922E0510922D0594E0CA
:101F500090932805A0CF882359F220912D05309128
:101F60002E052536310508F496CF95E0F1CF811185
:101F700092CFB5CF2F9AFF91EF91BF91AF919F91E3
:101F80008F917F916F915F914F913F912F910F9022
:101F90000BBE0F900FBE0F901F90189580912A05D1
:101FA000882321F080912A0560E084CF2F98E3CF29
:101FB0001F920F920FB60F9211240BB60F922F9310
:101FC0003F934F935F936F937F938F939F93AF93C1
:101FD000BF93CF93DF93EF93FF9380917302C091F0
:101FE0003606D0E087FF23C010928500109284004F
:101FF000809173028F5F8093730280917302082E29
:10200000000C990B8C179D0724F4809173028C307F
:1020100074F1809184009091850084349C4908F487
:1020200065C08091840090918500049661C0809184
:102030007302082E000C990B8C179D07CCF630917B
:10204000730225E03203F0011124E650FA4F80813B
:1020500086FFCECF309173023203F0011124E65097
:10206000FA4F808160E08F730E940B03C1CF809193
:102070008400909185003091730225E03203F001D5
:102080001124E650FA4F41815281840F951F90939D
:10209000890080938800309173023203F00111248B
:1020A000E650FA4F808186FF0CC0309173023203F4
:1020B000F0011124E650FA4F808161E08F730E9495
:1020C0000B03FF91EF91DF91CF91BF91AF919F9162
:1020D0008F917F916F915F914F913F912F910F90D1
:1020E0000BBE0F900FBE0F901F90189580E49CE9D7
:1020F00090938900809388008FEF80937302E1CFE3
:10210000109248031092470388EE93E0A0E0B0E0FD
:102110008093490390934A03A0934B03B0934C03DD
:1021200023E132E030934603209345031092540399
:10213000109253038093550390935603A093570333
:10214000B093580325E232E03093520320935103B9
:1021500045E351E050935E0340935D0344E351E057
:102160005093600340935F0340E351E05093620358
:102170004093610341E351E0509364034093630350
:1021800042E351E0509366034093650346E351E018
:10219000509368034093670310926A0310926B0395
:1021A00010926C0310926D031092F1031092F003E1
:1021B0008093F2039093F303A093F403B093F50399
:1021C0003093EF032093EE0345ED50E05093FB0373
:1021D0004093FA0344ED50E05093FD034093FC0319
:1021E00040ED50E05093FF034093FE0341ED50E07B
:1021F000509301044093000442ED50E050930304D7
:102200004093020446ED50E05093050440930404CB
:1022100010920704109208041092090410920A0404
:1022200010928E0410928D0480938F0490939004EA
:10223000A0939104B093920430938C0420938B0468
:1022400085EC90E0909398048093970484EC90E060
:1022500090939A048093990480EC90E090939C046E
:1022600080939B0481EC90E090939E0480939D0466
:1022700082EC90E09093A00480939F0486EC90E021
:102280009093A2048093A1041092A4041092A50438
:102290001092A6041092A704809107029091080260
:1022A000A0910902B0910A02809320079093210720
:1022B000A0932207B093230780910B0290910C0208
:1022C000A0910D02B0910E028093240790932507F0
:1022D000A0932607B093270784E08093280787E020
:1022E0008093290710922A0784EB80932B0786E1BD
:1022F00080932C0788E180932D0787E180932E0738
:1023000089E180932F07E0913606EC3008F4ABC0EA
:102310008FEF80933007E0913606EC3008F4B4C0BC
:102320008FEF809331078CE08093FF0684E28093E7
:10233000000786E08093010785E0809302078FE124
:10234000809303078EE18093040783E2809305075F
:1023500082E28093060785E48093070784E48093F4
:10236000080780E480930B07109210071092110762
:10237000109212071092130710921407109215076B
:102380001092160710921707E1E4F6E08FEF9FEF27
:10239000DC01128213821482158216821782108643
:1023A000118683879487A587B6878787908BA18BB3
:1023B000B28B128611821082739626E0EF3FF207ED
:1023C00041F78DE090E00E94DA19FC01138212823D
:1023D00087E392E091838083118687E2848384E19E
:1023E000828784E083871486F0933E06E0933D065F
:1023F00010923F061092400685E2809329051092C4
:102400002B05109238061092370610923A06109259
:10241000390610923C0610923B0661E070E090E0B5
:1024200080E00E94FF1A009709F43FC0909338069D
:102430008093370610923A061092390620913B0697
:1024400030913C06232B11F4FC01108210923C06C3
:1024500010923B066DE472E0809137069091380649
:102460000E94E91B36C081E08E0F80933606E09310
:10247000300725E0E29FF0011124E650FA4F88EB87
:102480009BE09283818347CF81E08E0F8093360655
:10249000E093310785E0E89FF0011124E650FA4F00
:1024A00088EB9BE0928381833ECF809137069091A9
:1024B0003806009711F00E94761A10923806109292
:1024C000370610923C0610923B0610923A06109284
:1024D000390684EF93E3A0E0B0E080933607909351
:1024E0003707A0933807B09339070895789484B5D7
:1024F000826084BD84B5816084BD85B5826085BD00
:1025000085B5816085BD80916E00816080936E008D
:10251000109281008091810082608093810080917F
:102520008100816080938100809180008160809330
:1025300080008091B10084608093B1008091B000F0
:1025400081608093B00080919100826080939100BF
:1025500080919100816080939100809190008160D2
:10256000809390008091A10082608093A10080916F
:10257000A10081608093A1008091A0008160809380
:10258000A00080912101826080932101809121012E
:1025900081608093210180912001816080932001DE
:1025A00080917A00846080937A0080917A008260C2
:1025B00080937A0080917A00816080937A00809184
:1025C0007A00806880937A001092C1000E94A40172
:1025D0000E94A40161E0809100070E94780360E0FE
:1025E000809100070E940B0360E08091FF060E942B
:1025F000780385E493E090930A078093090710928B
:10260000AA021092A90210922203109244030E947F
:10261000390383EF91E09093CD028093CC0284EF55
:1026200091E09093D1028093D00280E090E1A0E00D
:10263000B0E080930C0790930D07A0930E07B09322
:102640000F078AE090E0A0E0B0E08093100790933D
:102650001107A0931207B093130780E090E0A0E069
:10266000B0E48093140790931507A0931607B093D6
:10267000170760E070E185E00E94D2046FE979E31A
:1026800080E00E94D20401E017E0CFEFD6E073E0D3
:10269000C72E77E0D72EE0E46E2EE2E07E2EF6E83D
:1026A0008F2EF2E09F2EABECEA2EA7E0FA2EF80177
:1026B000928181918F01898F9A8F61E00E947803C6
:1026C00061E08A8D0E9478035E01FDE1AF0EB11CCE
:1026D000F801958183818D8F9E8F61E00E94780340
:1026E00060E08E8D0E94780361E08D8D0E940B0367
:1026F0005FB6F89480917902811125C0F30184912D
:10270000F4019491E82FF0E0EE0FFF1FE354FE4F29
:10271000A591B4918C91982321F461E085E30E9406
:102720000B0361E085E30E9478038CB580618CBD6A
:102730008CB580648CBD61E084E30E94780361E025
:1027400083E30E947803809179028F5F80937902FE
:102750005FBEC7010197F1F760E08D8D0E940B030A
:1027600088E80E94BA0783E00E94BA0761E08D8D75
:102770000E940B03C7010197F1F7C5010E94C10731
:102780002296CC16DD0609F092CFC4E2D7E000E233
:1027900017E058E2E52E57E0F52E60E089910E949F
:1027A0007803EC16FD06C9F7C8E2D7E094E2E92EFB
:1027B00097E0F92E25E0D22E3CE0B32E42E0C42E65
:1027C000A9908F818C3008F042C061E08A2D0E9470
:1027D00078038F81D89EF0011124E650FA4F2A2DFC
:1027E0002F739081907C922B9083138214826B2D97
:1027F0000E947F188B9DA001112430E020E0BA01D7
:10280000620F731FD69EF001D79EF00D1124E65083
:10281000FA4F908196FD12C02F5F3F4F2C3031054B
:1028200071F781110BC010928000C092810010924C
:10283000850010928400C6BAC0926F00EF81DE9EC0
:10284000F0011124E650FA4F8081806480839D81DD
:102850008B81F801828B938B60E00E94780361E0AA
:10286000F80183890E94780360E0F80183890E945F
:102870000B030E5F1F4FE016F10609F0A1CFF8948D
:102880001092200189E08093210180E293E09093EF
:10289000290180932801109225011092240182E0E1
:1028A0008093730078948093280510922C05809172
:1028B000290560E00E94780360E084E00E947803CC
:1028C00060E085E00E94780360E080E30E94780386
:1028D00060E081E30E94780382E090E090937D02C3
:1028E00080937C0281E090E090937F0280937E024F
:1028F00010927B0210927A0285E00E94A903BC012B
:10290000990F880B990B0E9440174B015C0184E0E2
:102910000E94A903BC01990F880B990B0E944017D4
:102920006B017C01C4EFD1E0A5019401C701B601A0
:102930000E94BB1820E030E048E453EC0E94D0191C
:10294000181644F585E00E94A903BC01990F880B75
:10295000990B0E9440174B015C0184E00E94A9037F
:10296000BC01990F880B990B0E9440176B017C01E9
:10297000A50194010E94BB1842E00E9410098BE45B
:1029800092E00E94BF0861E070E080E090E00E9469
:102990000905CACF219741F66CED75E080E090E023
:1029A0000E94090582E0282E312C64E670E080E068
:1029B00090E00E94090500917E0210917F02C09173
:1029C0007C02D0917D020A3011050CF022C281E315
:1029D0000E94E202892BF1F4C230D10571F1C330BB
:1029E000D10509F4FEC0C130D10529F70E94B50A0E
:1029F0000E94D60A80917C0290917D02019690936C
:102A00007D0280937C020E94930AD0937B02C09344
:102A10007A02D1CF80E30E94E202892BE9F2229769
:102A200009F0EFC0C8018D7F019739F0073011051B
:102A300021F00930110509F0E4C080917A029091EB
:102A40007B02039791F40E94930A81E30E94E202C1
:102A5000892B31F080E30E94E202892B09F0ACC09F
:102A60000E94930A0E94920BA7C00E94B50A81E3BC
:102A70000E94E202892B31F180E30E94E202892B5D
:102A800009F10E94D60A80917C0290917D02019604
:102A900090937D0280937C020E94930A81E30E94BE
:102AA000E202892B09F096C00E94930A0E94D60A7E
:102AB00080917C0290917D02019790937D0280939A
:102AC0007C02C3CF80917A0290917B02019709F03A
:102AD00051C00E94B50A0E94D60A80917E02909150
:102AE0007F02019790937F0280937E020E94D60A14
:102AF00080917E0290917F02019790937F02809354
:102B00007E020E94930A81E30E94E202892B61F512
:102B10000E94B50A0E94D60A80917E0290917F029F
:102B2000019790937F0280937E020E94D60A809143
:102B30007E0290917F02019790937F0280937E02A4
:102B40000E94930A0E94D60A80917C0290917D0295
:102B5000019690937D0280937C020E94930A1092CA
:102B60007B0210927A0227CF80E30E94E202892B37
:102B700079F2E8CF4EEA57E461E67EEB8AE197E02E
:102B80000E9493060E94EC092EEA37E441E65EE3D8
:102B90000E94BC18AB01BC01705888E197E00E940C
:102BA00093068EE197E00E94EC0765357F40810532
:102BB0009105BCF30E94A2080E94D60A80917C0273
:102BC00090917D02019790937D0280937C020E94F8
:102BD000B50AC5CF80E30E94E202892B09F464CFD5
:102BE000BECF0E94930A0E94D60A80917C029091E7
:102BF0007D02019790937D0280937C020E94B50A2A
:102C000004CFC801B1010E948B18019709F0F5C0EB
:102C10000930110509F4F1C04AE959E969E17EEB8F
:102C20008AE197E00E9493064AE959E969E17EE367
:102C300088E197E00E94930664E670E080E090E00F
:102C40000E9409058CE197E00E94EC07C0903607CE
:102C5000D0903707E0903807F09039079B01AC011E
:102C600088279927DC01821B930BA40BB50B8C15CD
:102C70009D05AE05BF050CF059C08EE197E00E949E
:102C8000EC076C157D058E059F050CF04FC08CE19F
:102C900097E00E94EC074B015C01C701B6010E945E
:102CA00040172B013C012DEC3CEC4CEC5DE30E9409
:102CB0009F176B017C0166277727CB01681979097B
:102CC0008A099B090E944017A70196010E943917A3
:102CD00087FD38C08CE197E00E94EC0790958095C5
:102CE000709561957F4F8F4F9F4F0E9440179B01BA
:102CF000AC01C701B6010E94391787FD33C04AE90C
:102D000059E969E17EEB8AE197E00E9493060E940F
:102D1000EC092AE939E949E15EE30E94BC18AB01FC
:102D2000BC0188E197E00E9493068CCF0E94A20824
:102D300080917E0290917F02029690937F02809311
:102D40007E0239CE8EE197E00E94EC070E94401788
:102D50009B01AC01C701B6010E94D01918160CF0F6
:102D6000B9CFCDCF8EE197E00E94EC070E944017CB
:102D70009B01AC01C701B6010E94391787FFBFCF85
:102D80008CE197E00E94EC076B017C012DEC3CECA0
:102D90004CE45FE3C301B2010E949F172B013C0189
:102DA00066277727CB016C197D098E099F090E9440
:102DB0004017A30192010E94391787FFA0CF8EE12F
:102DC00097E00E94EC070E9440179B01AC01C301F1
:102DD000B2010E94D01918160CF091CF4AE959E9B6
:102DE00069E97EEB8AE197E00E9493060E94EC0974
:102DF0002AE939E949E95EE390CF0E94D60A809139
:102E00007E0290917F02019690937F0280937E02D2
:102E1000A6CEC330D10599F40E94D60A0E94930A27
:102E20000E94D60A0E94930ACAE0D0E00E94D60A05
:102E30002197E1F70E94A2080E946E06B6CD219765
:102E4000C9F70E94D60A0E94B50A0E94D60A0E94BB
:102E5000B50ACAE0D0E00E94D60A2197E1F7EACF8E
:102E60008091370690913806009711F00C94761AED
:102E700008950E947B1708F481E00895E89409C042
:102E800097FB3EF490958095709561957F4F8F4F9D
:102E90009F4F9923A9F0F92F96E9BB279395F695B3
:102EA000879577956795B795F111F8CFFAF4BB0F31
:102EB00011F460FF1BC06F5F7F4F8F4F9F4F16C095
:102EC000882311F096E911C0772321F09EE8872F1F
:102ED000762F05C0662371F096E8862F70E060E0DB
:102EE0002AF09A95660F771F881FDAF7880F969554
:102EF000879597F90895990F0008550FAA0BE0E8F8
:102F0000FEEF16161706E807F907C0F012161306AB
:102F1000E407F50798F0621B730B840B950B39F4EB
:102F20000A2661F0232B242B252B21F408950A2651
:102F300009F4A140A6958FEF811D811D08950E947F
:102F4000B2170C9423180E94151838F00E941C1810
:102F500020F0952311F00C940C180C9412181124E5
:102F60000C9457180E94341870F3959FC1F3950F75
:102F700050E0551F629FF001729FBB27F00DB11DFD
:102F8000639FAA27F00DB11DAA1F649F6627B00D8D
:102F9000A11D661F829F2227B00DA11D621F739F76
:102FA000B00DA11D621F839FA00D611D221F749F84
:102FB0003327A00D611D231F849F600D211D822FCB
:102FC000762F6A2F11249F5750409AF0F1F08823F2
:102FD0004AF0EE0FFF1FBB1F661F771F881F91501F
:102FE0005040A9F79E3F510580F00C940C180C94AA
:102FF00057185F3FE4F3983ED4F38695779567952D
:10300000B795F795E7959F5FC1F7FE2B880F911D48
:103010009695879597F9089597F99F6780E870E0EE
:1030200060E008959FEF80EC089500240A9416163E
:10303000170618060906089500240A9412161306A6
:10304000140605060895092E0394000C11F4882334
:1030500052F0BB0F40F4BF2B11F460FF04C06F5F50
:103060007F4F8F4F9F4F089557FD9058440F551F26
:1030700059F05F3F71F04795880F97FB991F61F0FA
:103080009F3F79F087950895121613061406551F71
:10309000F2CF4695F1DF08C0161617061806991FDD
:1030A000F1CF86957105610508940895E894BB27D2
:1030B00066277727CB0197F90895A1E21A2EAA1B5C
:1030C000BB1BFD010DC0AA1FBB1FEE1FFF1FA217D8
:1030D000B307E407F50720F0A21BB30BE40BF50BD5
:1030E000661F771F881F991F1A9469F7609570955E
:1030F000809590959B01AC01BD01CF010895991B6E
:1031000079E004C0991F961708F0961B881F7A95DE
:10311000C9F78095089597FB072E16F4009407D001
:1031200077FD09D00E94A71807FC05D03EF49095C2
:1031300081959F4F0895709561957F4F0895EE0F8B
:10314000FF1F881F8BBF0790F691E02D1994AA1BD3
:10315000BB1B51E107C0AA1FBB1FA617B70710F082
:10316000A61BB70B881F991F5A95A9F780959095B4
:10317000BC01CD0108955058BB27AA270E94D3183F
:103180000C9423180E94151838F00E941C1820F087
:1031900039F49F3F19F426F40C9412180EF4E095BC
:1031A000E7FB0C940C18E92F0E94341858F3BA1757
:1031B000620773078407950720F079F4A6F50C944D
:1031C00056180EF4E0950B2EBA2FA02D0B01B90165
:1031D00090010C01CA01A0011124FF27591B99F08D
:1031E000593F50F4503E68F11A16F040A22F232F99
:1031F000342F4427585FF3CF469537952795A795E9
:10320000F0405395C9F77EF41F16BA0B620B730B8F
:10321000840BBAF09150A1F0FF0FBB1F661F771F00
:10322000881FC2F70EC0BA0F621F731F841F48F4B5
:10323000879577956795B795F7959E3F08F0B0CF3E
:103240009395880F08F09927EE0F97958795089525
:103250000E943C190C9423180E941C1858F00E94DC
:10326000151840F029F45F3F29F00C940C18511107
:103270000C9457180C9412180E94341868F3992370
:10328000B1F3552391F3951B550BBB27AA27621762
:103290007307840738F09F5F5F4F220F331F441F6F
:1032A000AA1FA9F335D00E2E3AF0E0E832D09150A3
:1032B0005040E695001CCAF72BD0FE2F29D0660F90
:1032C000771F881FBB1F261737074807AB07B0E8D3
:1032D00009F0BB0B802DBF01FF2793585F4F3AF0D9
:1032E0009E3F510578F00C940C180C9457185F3FD2
:1032F000E4F3983ED4F3869577956795B795F7955F
:103300009F5FC9F7880F911D9695879597F9089546
:10331000E1E0660F771F881FBB1F621773078407E2
:10332000BA0720F0621B730B840BBA0BEE1F88F7F1
:10333000E09508950E94A1196894B1110C94571852
:1033400008950E943C1888F09F5798F0B92F99274C
:10335000B751B0F0E1F0660F771F881F991F1AF080
:10336000BA95C9F714C0B13091F00E945618B1E077
:1033700008950C945618672F782F8827B85F39F076
:10338000B93FCCF3869577956795B395D9F73EF419
:1033900090958095709561957F4F8F4F9F4F0895C1
:1033A0000E947B1708F48FEF08950E947B17880B0B
:1033B000990B08950F931F93CF93DF93823091055C
:1033C00010F482E090E0E0913C07F0913D0730E09E
:1033D00020E0B0E0A0E0309799F42115310509F420
:1033E0004AC0281B390B24303105D8F58A819B81CE
:1033F0006115710589F1FB0193838283FE0111C080
:10340000408151810281138148175907E0F0481724
:10341000590799F4109761F012960C93129713962E
:103420001C933296CF01DF91CF911F910F91089598
:1034300000933C0710933D07F4CF2115310551F05F
:103440004217530738F0A901DB019A01BD01DF01E2
:10345000F801C1CFEF01F9CF90933D0780933C076E
:10346000CDCFFE01E20FF31F8193919322503109DA
:1034700039832883D7CF20913A0730913B07232BFC
:1034800041F4209103023091040230933B072093D2
:103490003A0720910102309102022115310541F4D1
:1034A0002DB73EB74091050250910602241B350B03
:1034B000E0913A07F0913B07E217F307A0F42E1BC7
:1034C0003F0B2817390778F0AC014E5F5F4F241788
:1034D000350748F04E0F5F1F50933B0740933A0764
:1034E000819391939FCFF0E0E0E09CCFCF93DF9367
:1034F0000097E9F0FC01329713821282A0913C07F9
:10350000B0913D07ED0130E020E01097A1F420815B
:103510003181820F931F20913A0730913B07281782
:10352000390709F061C0F0933B07E0933A07DF9158
:10353000CF910895EA01CE17DF07E8F54A815B8154
:103540009E0141155105B1F7E901FB83EA834991D9
:103550005991C40FD51FEC17FD0761F4808191814B
:103560000296840F951FE901998388838281938154
:103570009B838A83F0E0E0E012968D919C911397F3
:103580000097B9F52D913C911197CD010296820FCC
:10359000931F20913A0730913B072817390739F6D6
:1035A000309751F510923D0710923C07B0933B07BE
:1035B000A0933A07BCCFD383C28340815181840F4B
:1035C000951FC817D90761F44E5F5F4F88819981B5
:1035D000480F591F518340838A819B819383828343
:1035E0002115310509F0B0CFF0933D07E0933C077A
:1035F0009ECFFD01DC01C0CF13821282D7CF4F9244
:103600005F926F927F928F929F92AF92BF92CF9272
:10361000DF92EF92FF920F931F93CF93DF938C0172
:10362000009799F4CB01DF91CF911F910F91FF90FB
:10363000EF90DF90CF90BF90AF909F908F907F9052
:103640006F905F904F900C94DA19FC01E60FF71F12
:103650009C0122503109E217F30708F4AEC0D901EA
:10366000CD91DC911197C617D70720F1C530D10550
:1036700078F0CE0104978617970750F0C61BD70B3A
:103680002297C193D1936D937C93CF010E94761AB8
:10369000C801DF91CF911F910F91FF90EF90DF90C4
:1036A000CF90BF90AF909F908F907F906F905F90E2
:1036B0004F9008955B01AC1ABD0A4C018C0E9D1E03
:1036C000A0913C07B0913D07512C412CF12CE12CED
:1036D000109731F580913A0790913B07881599052D
:1036E00009F05CC04616570608F058C080910102E8
:1036F00090910202009741F48DB79EB74091050268
:1037000050910602841B950BE817F90708F055C085
:10371000F0933B07E0933A07F90171836083B8CFD8
:103720008D919C91119712966C90129713967C90A4
:103730001397A815B90559F56C0142E0C40ED11CC8
:10374000CA14DB0420F1AC014A195B09DA011296B4
:10375000159780F06282738251834083D9016D9303
:103760007C93E114F10471F0D7011396FC93EE936E
:1037700012978ECF22968C0F9D1FF9019183808323
:10378000F301EFCFF0933D07E0933C0781CF48165C
:10379000590608F42C017D01D3019ACFCB010E9478
:1037A000DA197C01009749F0AE01B8010E94E01BD4
:1037B000C8010E94761A87016BCF10E000E068CF45
:1037C000FB01DC0102C001900D9241505040D8F73E
:1037D0000895FB01DC0101900D920020E1F70895AE
:1037E00011E0C0E7D1E000E006C0802FFE010E949A
:1037F0009F182196011DC137D10780E00807A9F75E
:04380000F894FFCF6A
:10380400FF00003E078000363738391B1D1A1C00A4
:103814000000004C021F026608F50118020502F6BA
:103824000100000000FE053B0581054B06B2059032
:1038340005A405000000007E083B05660865086EC7
:0E384400616E00696E66006F7666000D0A0008
:00000001FF
