:100000000C9471010C94A2010C94A2010C94A20115
:100010000C94A2010C94A2010C94A2010C94A201D4
:100020000C94A2010C94FC090C94FC090C94FC099E
:100030000C94A2010C94740B0C94A2010C94A201D8
:100040000C94A2010C94CD0D0C94A2010C94A2016D
:100050000C94A2010C94A2010C94A2010C942A0B02
:100060000C94A2010C94E30C0C94B90C0C94A20116
:100070000C94A2010C94A2010C94A2010C94A20174
:100080000C94A2010C94A2010C94A2010C94A20164
:100090000C94A2010C94A2010C94A2010C94060AE7
:1000A0000C94A2010C94A2010C94A2010C94A20144
:1000B0000C94A2010C94A2010C94A2010C940D0DBD
:1000C0000C94A2010C94A2010C94A2010C948F0C2C
:1000D0000C94650C0C94A2010C943B0C0C94110C28
:1000E0000C94A2010C9428070C94CC010C94690781
:1000F0000C9471020C94F0060C9496020C94A802D5
:100100000C94AC020C94A4020C94D0060C949A02A9
:100110000C943C080C9423080C94CB010C943207EB
:100120000C94B2020C9424080C945F070C947B028C
:100130000C94BC050C9409060C9477020C94F701FE
:100140000C9441070C944E050C943F050C94CD0182
:100150000C9473070C948C020C944B070C94B6020D
:100160000C9490130C9486020C941E070C947F023E
:100170000C9490020C94F0010C9483020C941407DC
:100180000C9470050C94F9040C949E020C94E606F1
:100190000C9424020C9404070C94E1060C94CE01F8
:1001A0000C9462050C94DD010C940C070C94750EF4
:1001B0000C94FA060C94B1020C945507020000212D
:1001C00000240027002A002D003000330001010028
:1001D00000040107010A0100002200250028002B6D
:1001E000002E003100340002010000050108010B5F
:1001F00001000020002300260029002C002F0032DF
:1002000000000100000301060109010505050507BD
:100210000508080808020202020A0A080804040481
:1002200004010101010101010103030303030303AD
:1002300003040707070C0C0C0C0C0C0C0C0202023C
:100240000206060606060606060B0B0B0B0B0B0B2F
:100250000B010210202008081020401020408002CE
:1002600001020108040201010204081020408080FC
:100270004020100804020180040201804020100880
:100280000402010804020101020408102040800158
:100290000204081020408000000A0B02090C0D0E19
:1002A0000807030401000000000000000000000037
:1002B000000000000000000000000000000000003E
:1002C00000000012111000000000000000000000FB
:1002D0000000000000000000000000000000750E9B
:1002E000901311241FBECFEFD1E2DEBFCDBF00E0DF
:1002F0000CBF12E0A0E0B2E0E2E4FFE200E00BBFDE
:1003000002C007900D92A434B107D9F727E0A4E406
:10031000B2E001C01D92A832B207E1F711E0C0E7D8
:10032000D1E000E006C021970109802FFE010E9464
:10033000C914CF36D10780E00807A9F70E945D10E5
:100340000C948F170C9400002091BC02260F3327C9
:10035000331F21323105ECF420910903FC0190E0B8
:1003600080E0243069F082E00895A091BC022191E0
:10037000AC0146565D4FA40FB52FB11D2C930196CD
:10038000861798F38091BC02680F6093BC0280E0EE
:10039000089581E00895089508950895E0919802E0
:1003A00080919702E81730F4F0E0E958FD4F808122
:1003B00090E008958FEF9FEF0895909198028091BB
:1003C00097022FEF3FEF981748F4E92FF0E0E95834
:1003D000FD4F208130E09F5F90939802C9010895FE
:1003E0008091970290919802891B990B0895CF9262
:1003F000DF92EF92FF920F931F93CF93DF937C01D5
:10040000CB018A0120910F03222389F0EB016B01BC
:10041000C40ED51ECC15DD0569F06991D701ED91AB
:10042000FC910190F081E02DC7011995F3CF642F65
:100430000E94A401C801DF91CF911F910F91FF90FD
:10044000EF90DF90CF900895CF93DF931F92CDB7B9
:10045000DEB7698320910F032223F9F02091320344
:10046000203258F021E030E0FC013383228390E019
:1004700080E00F90DF91CF91089580911003E82FD5
:10048000F0E0EF5EFC4F998190838F5F80931003C3
:100490008093320381E090E0ECCF61E0CE010196E1
:1004A0000E94A401F7CF8150823108F05AC0E82F92
:1004B000F0E08827E15AFD4F8F4F0C94C9147F025A
:1004C0008302710277027B02B10286028C029002E3
:1004D00096029A029E02A402A802B102AC02B202E3
:1004E000B602809180008F7780938000089580917C
:1004F00080008F7DF9CF80918000877FF5CF84B514
:100500008F7784BD089584B58F7DFBCF8091B00037
:100510008F778093B00008958091B0008F7DF9CFE0
:10052000809190008F778093900008958091900043
:100530008F7DF9CF80919000877FF5CF8091A000CB
:100540008F778093A00008958091A0008F7DF9CFD0
:100550008091A000877FF5CF809120018F778093D5
:1005600020010895809120018F7DF9CF8091200195
:10057000877FF5CFCF93DF93282F30E0F901E9563D
:10058000FD4F8491F901EF5AFD4FD491F901E55FD8
:10059000FD4FC491CC23A1F081110E945302EC2F96
:1005A000F0E0EE0FFF1FEF50FE4FA591B491EC91DC
:1005B000ED2381E090E009F480E0DF91CF91089590
:1005C00080E090E0FACF1F93CF93DF93282F30E0A5
:1005D000F901E956FD4F8491F901EF5AFD4FD4918D
:1005E000F901E55FFD4FC491CC23A9F0162F8111CD
:1005F0000E945302EC2FF0E0EE0FFF1FE952FE4F76
:10060000A591B4918FB7F894EC91111108C0D095D1
:10061000DE23DC938FBFDF91CF911F910895DE2BF6
:10062000F8CF1092090381E0809308031092E3024F
:1006300061E084E10E94E30261E085E10E94E3025F
:10064000E9EBF0E080818E7F808380818D7F8083E5
:1006500088E48093B80085E48093BC000895CF932C
:10066000DF9391E0909399028823B9F0C091B8008C
:10067000D091BA008091BC008A7B8093BC0060E07E
:1006800084E10E94E30260E085E10E94E3020E94AF
:100690001103D093BA00C093B800DF91CF910895B1
:1006A000CF93DF9390E0FC01EF5AFD4F2491855FDB
:1006B0009D4FFC0184918823D1F090E0880F991F11
:1006C000FC01E354FE4FA591B491FC01E952FE4FA9
:1006D000C591D49161110EC09FB7F8948C91E22F0F
:1006E000E0958E238C932881E223E8839FBFDF91DE
:1006F000CF9108958FB7F894EC91E22BEC938FBFD4
:10070000F6CF3FB7F8948091730290917402A09154
:100710007502B091760226B5A89B05C02F3F19F04F
:100720000196A11DB11D3FBFBA2FA92F982F882771
:10073000BC01CD01620F711D811D911D42E0660F4C
:10074000771F881F991F4A95D1F708958F929F921E
:10075000AF92BF92CF92DF92EF92FF920E948103FD
:100760004B015C0184E6C82ED12CE12CF12C0E94B7
:100770008103681979098A099B09683E73408105DC
:100780009105A8F321E0C21AD108E108F10888EE2A
:10079000880E83E0981EA11CB11CC114D104E10491
:1007A000F10429F7FF90EF90DF90CF90BF90AF90CA
:1007B0009F908F900895CF92DF92EF92FF920F93C8
:1007C0001F93CF93DF93D091320381E0D13208F0B1
:1007D0009CC0C09131030E9481036B017C01809118
:1007E000090381116CC082E08093090381E080934A
:1007F00008038FEF8093070310920603D09305033D
:10080000A1E1B3E0E5EEF2E080E0D8138DC01092F4
:10081000E4028091E402CC0FC82BC093E4028091E3
:10082000E302813009F084C01092E3020E94810348
:100830006B017C018091E4028093BB0080910B03EB
:1008400090910C03A0910D03B0910E03892B8A2B7C
:100850008B2BA1F00E94810300910B0310910C03DC
:1008600020910D0330910E036C197D098E099F09AB
:10087000061717072807390708F442C08091BC0003
:1008800083FDD8CF85EC8093BC000E9481036B016F
:100890007C0180910903823009F44CC080910703E8
:1008A0008F3F09F469C080910703803209F466C064
:1008B00080910703803309F463C084E026C08091EF
:1008C0000B0390910C03A0910D03B0910E03892BA3
:1008D0008A2B8B2B09F483CF0E94810300910B0399
:1008E00010910C0320910D0330910E036C197D09BA
:1008F0008E099F09061717072807390708F06FCFD9
:1009000080910A030E942F0385E010921003109239
:10091000320310920F03DF91CF911F910F91FF903F
:10092000EF90DF90CF9008959D9191938F5F6DCF61
:1009300085EEA9CF80910B0390910C03A0910D033C
:10094000B0910E03892B8A2B8B2B09F4A2CF0E9426
:10095000810300910B0310910C0320910D03309142
:100960000E036C197D098E099F09061717072807C2
:10097000390708F08ECFC4CF80E0C7CF82E0C5CF63
:1009800083E0C3CF0F931F93CF93DF93162F072FCF
:10099000CDEED6E0AA85BB859C8521E020930F0390
:1009A000909331031092100310923203ED91FC9159
:1009B00011970190F081E02D682FCD0119958A855E
:1009C0009B85DC01ED91FC910190F081E02D602F81
:1009D00019958A859B85DC01ED91FC910190F08150
:1009E000E02D612F1995DF91CF911F910F910C94FC
:1009F000DB03AF92BF92CF92DF92EF92FF920F9301
:100A00001F93CF93DF936C017B018B01040F151FA4
:100A1000EB015E01AE18BF08C017D10759F069910C
:100A2000D601ED91FC910190F081E02DC601199560
:100A3000892B79F7C501DF91CF911F910F91FF901D
:100A4000EF90DF90CF90BF90AF900895FC01A08908
:100A5000B1898C91A689B78982FD0FC09C91818D47
:100A60008F5F8F73228D821749F0A18DAE0FBF2F3C
:100A7000B11D5D969C93818F08958C910895FC0122
:100A8000538D448D252F30E0842F90E0821B930BF3
:100A9000541710F0CF96089501970895FC01918D99
:100AA000828D981761F0A28DAE0FBF2FB11D5D969C
:100AB0008C91928D9F5F9F73928F90E008958FEF3E
:100AC0009FEF0895FC01918D828D981731F0828DF2
:100AD000E80FF11D858D90E008958FEF9FEF089549
:100AE000FC01918D228D892F90E0805C9F4F821BAD
:100AF00091098F73992708958FE393E00E94700501
:100B000021E0892B09F420E0822F08958CED93E0F9
:100B10000E94700521E0892B09F420E0822F0895BE
:100B200089E794E00E94700521E0892B09F420E018
:100B3000822F0895FC01A48DA80FB92FB11DA35ACF
:100B4000BF4F2C91848D90E001968F739927848FED
:100B5000A689B7892C93A089B1898C918370806410
:100B60008C93938D848D981306C00288F389E02DB1
:100B700080818F7D80830895EF92FF920F931F9362
:100B8000CF93DF93EC0181E0888F9B8D8C8D981340
:100B90001AC0E889F989808185FF15C09FB7F8944C
:100BA000EE89FF896083E889F98980818370806498
:100BB00080839FBF81E090E0DF91CF911F910F91E3
:100BC000FF90EF900895F62E0B8D10E00F5F1F4FF2
:100BD0000F731127E02E8C8D8E110CC00FB607FC01
:100BE000FACFE889F989808185FFF5CFCE010E948F
:100BF0009A05F1CFEB8DEC0FFD2FF11DE35AFF4F5E
:100C0000F0829FB7F8940B8FEA89FB89808180621C
:100C1000CFCFCF93DF93EC01888D8823B9F0AA89D9
:100C2000BB89E889F9898C9185FD03C0808186FDA7
:100C30000DC00FB607FCF7CF8C9185FFF2CF8081F6
:100C400085FFEDCFCE010E949A05E9CFDF91CF91CC
:100C50000895F0E0E0E0199480E090E0892B29F01D
:100C60000E94900581110E94000080E090E0892B95
:100C700049F080E090E0892B29F00E94000081116A
:100C80000E9400000E94860581110E94290680E0D2
:100C900090E0892B29F00E947C0581110C940000C2
:100CA00008958F929F92AF92BF92CF92DF92EF9270
:100CB000FF920F931F93CF93DF93EC016A017B01A7
:100CC00020E030E04FE753E4CB01B6010E94FF1370
:100CD0004B015C0120E030E0A9010E947415181658
:100CE0008CF5C501B4010E943E158B01B98020E04E
:100CF00030E0A901C701B6010E94741560E0181622
:100D00000CF061E08B2D0E94E3020F3F110509F00A
:100D1000ECF41127C88161E08C2F0E94500301156B
:100D20001105B9F460E08C2FDF91CF911F910F91E5
:100D3000FF90EF90DF90CF90BF90AF909F908F90FB
:100D40000C94E302C501B4019058CDCF0FEF10E031
:100D5000E1CF0F3F110511F461E0E5CFEC2FF0E09A
:100D6000E956FD4FE491E150E23108F0BCC0F0E0FB
:100D70008827E254F94F8F4F0C94C914D006E1062E
:100D8000E606F006FA06730704070C0714071E07A9
:100D90002807320741074B07730755075F076907A5
:100DA00084B5806884BD07BDDF91CF911F910F91FD
:100DB000FF90EF90DF90CF90BF90AF909F908F907B
:100DC000089584B5806284BD08BDEECF8091800017
:100DD0008068809380001093890000938800E4CF9E
:100DE0008091800080628093800010938B0000933C
:100DF0008A00DACF80918000886080938000109311
:100E00008D0000938C00D0CF8091B00080688093DB
:100E1000B0000093B300C8CF8091B000806280938F
:100E2000B0000093B400C0CF8091900080688093A0
:100E300090001093990000939800B6CF8091900095
:100E400080628093900010939B0000939A00ACCF37
:100E50008091900088608093900010939D00009393
:100E60009C00A2CF8091A00080688093A000809118
:100E7000A0008F7B8093A0001093A9000093A8008E
:100E800093CF8091A00080628093A0001093AB006C
:100E90000093AA0089CF8091A00088608093A00071
:100EA0001093AD000093AC007FCF8091200180684B
:100EB00080932001109329010093280175CF809120
:100EC000200180628093200110932B0100932A015E
:100ED0006BCF8091200188608093200110932D01B9
:100EE00000932C0161CF003811050CF035CF1ACFDB
:100EF0008EBD00000DB407FEFDCF8EB50895CF93D3
:100F0000DF93EC0160E088810E94E30288E90E949F
:100F1000780780E00E94780780E00E94780780E0F0
:100F20000E94780780E00E94780761E088810E9433
:100F3000E3028BE891E00197F1F760E088810E947D
:100F4000E30280EE0E94780761E08881DF91CF9113
:100F50000C94E302AF92BF92CF92DF92EF92FF9296
:100F60000F931F93CF93DF93CDB7DEB760970FB684
:100F7000F894DEBF0FBECDBF6C0160E0FC01808144
:100F80000E94E30280E60E9478079E012F5F3F4F98
:100F900079015E0131E1A30EB11C870180E00E945E
:100FA000780790E0B0E0A0E0F80181939193A193DD
:100FB000B1938F01EA15FB0589F761E0F6018081A5
:100FC0000E94E30280E090E0DC01F7014191519141
:100FD000619171917F01BA2FA92F982F8827840FD3
:100FE000951FA61FB71FE017F10779F79C01AD0108
:100FF00066277727CB01621B730B840B950B6096DA
:101000000FB6F894DEBF0FBECDBFDF91CF911F9119
:101010000F91FF90EF90DF90CF90BF90AF90089529
:10102000FC01248131E030930F03209331031092AF
:101030001003109232038485682B83E393E00E94AF
:1010400024020C94DB03089590E080E008950F9350
:101050001F93CF938C01C62F64600E9410086C2FE1
:101060006B7FC8010E94100883EC90E00197F1F7B4
:10107000CF911F910F9108950F931F93CF93DF93FB
:101080008C01C62FD62FD07FD1606D2F0E94100803
:101090006D2FC8010E94270880E1C89FE00111243C
:1010A000C1606C2FC8010E9410086C2FC8010E94FB
:1010B000270881E090E0DF91CF911F910F91089573
:1010C00040E050E060E070E888E097E00E94510660
:1010D00040E050E0BA0186E097E00E9451068AE0C5
:1010E00097E00E947F078CE097E00E947F070C94B6
:1010F000A6034DEC5CEC6CE47EEB88E097E00E948C
:1011000051064DEC5CEC6CE47EEB86E097E00E94CF
:1011100051068CE097E00E94AA07623B7740810568
:101120009105BCF30C9460084DEC5CEC6CE47EE340
:1011300088E097E00E9451064DEC5CEC6CE47EE3A5
:1011400086E097E00E9451068AE097E00E94AA0795
:101150006F34784F8F4F9F4FBCF70C9460084F92BD
:101160005F926F927F928F929F92AF92BF92CF9237
:10117000DF92EF92FF924B015C018AE097E00E94C0
:10118000AA076B017C0188279927DC018C199D092E
:10119000AE09BF0980935D0290935E02A0935F0247
:1011A000B09360028CE097E00E94AA076C0D7D1D51
:1011B0008E1D9F1D0E94A0136B017C0140900002B8
:1011C00050900102609002027090030220E030E033
:1011D00040E85FE3C301B2010E94D21460930002B1
:1011E00070930102809302029093030227E137EB90
:1011F00041ED58E3C701B6010E94FF13A501940118
:101200000E94D2144B015C01A3019201C701B601F7
:101210000E94FF1325E93FEB46ED53E30E94FF13C5
:101220009B01AC01C501B4010E94D214FF90EF9064
:10123000DF90CF90BF90AF909F908F907F906F90F6
:101240005F904F9008958F929F92AF92BF92CF92EE
:10125000DF92EF92FF928AE097E00E94AA07653D35
:10126000754E8F4F9F4F0CF442C060E070E080E8F5
:101270009EE30E94AF086B017C016AE979E989E18C
:101280009EE30E94AF084B015C018AE097E00E9458
:10129000AA0790958095709561957F4F8F4F9F4FCE
:1012A0000E94A01320E038EF41EB55E40E9499130F
:1012B00087FD31C08CE097E00E94AA070E94A0132E
:1012C00020E038EF41EB55E40E94991387FD23C0DD
:1012D0004AE959E969E17EEB88E097E00E9451060E
:1012E000B501A40186E097E00E945106B4CF8CE0DE
:1012F00097E00E94AA076C327A41810591050CF4AF
:10130000B4CFFF90EF90DF90CF90BF90AF909F90C1
:101310008F900C94600840E050E060E87EEB88E03D
:1013200097E00E945106B701A601DCCFCF93DF936F
:101330000E942309C0916C02D0916D020E94230982
:10134000CE01029790936D0280936C020E949408E4
:1013500081E30E94BA02892B79F40E9479080E94E5
:1013600023090E9423092497D0936D02C0936C0235
:10137000DF91CF910C94940880E30E94BA02892BEC
:1013800061F3DF91CF91089585ED8093BC0080914A
:101390000B0390910C03A0910D03B0910E030796DF
:1013A000A11DB11D23E0B695A795979587952A9520
:1013B000D1F72091BC0024FD03C0109209030895C9
:1013C00040910B0350910C0360910D0370910E033B
:1013D000452B462B472B69F30097A105B10541F03A
:1013E00025E32A95F1F700000197A109B109E1CFA2
:1013F00080910A030C942F031F920F920FB60F9245
:1014000011240F900FBE0F901F9018951F920F92EE
:101410000FB60F9211240BB60F922F933F934F9359
:101420005F936F937F938F939F93AF93BF93EF934C
:10143000FF938091B900887F803609F44DC008F091
:1014400040C0883209F4A9C028F5803109F49DC054
:10145000C8F4882309F4FBC0883009F496C0FF91D2
:10146000EF91BF91AF919F918F917F916F915F911C
:101470004F913F912F910F900BBE0F900FBE0F9089
:101480001F901895883109F488C0803241F7809305
:10149000070314C0803409F49DC040F48033B9F3CD
:1014A0008833E9F68093070385ECB0C0803509F4F2
:1014B00085C0883509F496C0883489F60E94C4092D
:1014C000CECF883909F48CC038F5883729F050F42C
:1014D000883611F0803719F683E080930903109263
:1014E000E00257C0883809F47BC0803919F0803891
:1014F00009F0B5CF8091E002803208F071C0E09130
:10150000E00281E08E0F8093E0028091BB00F0E06A
:10151000E054FD4F80833DC0803B39F0E0F4803AD9
:1015200009F479C0883A09F09ACF84E080930903DE
:101530001092BD021092BC02E091BA02F091BB027F
:1015400019958091BC0281110FC081E08093BC028B
:1015500010929A0209C0803C09F4A6CF883C09F495
:10156000A3CF883B09F07BCFE091BD0281E08E0FD5
:101570008093BD02F0E0E656FD4F80818093BB0072
:101580009091BD028091BC0229C08091E4028093B9
:10159000BB0085EC8093BC0062CF909106038091E4
:1015A0000503981758F5E091060381E08E0F8093AC
:1015B0000603F0E0EB51FD4F8081E9CFE091060397
:1015C00081E08E0F809306038091BB00F0E0EB5129
:1015D000FD4F808390910603809105039817C8F210
:1015E00085E8D8CFE091060381E08E0F8093060353
:1015F0008091BB00F0E0EB51FD4F808380910803A8
:1016000081115CCF81E08093E30284EA8093BC0087
:101610001092090324CF85EC8093BC00109209033B
:101620008091E002803230F4E091E002F0E0E0549A
:10163000FD4F10826091E00270E0E091BE02F091F7
:10164000BF0280EC92E019951092E00208CF109250
:10165000070334CF1F920F920FB60F9211242F93CE
:101660003F938F939F93AF93BF9380916F0290911D
:101670007002A0917102B091720230916E0223E06B
:10168000230F2D3758F50196A11DB11D20936E0231
:1016900080936F0290937002A0937102B0937202D4
:1016A0008091730290917402A0917502B0917602BC
:1016B0000196A11DB11D8093730290937402A093B3
:1016C0007502B0937602BF91AF919F918F913F9138
:1016D0002F910F900FBE0F901F90189526E8230FA3
:1016E0000296A11DB11DD2CF1F920F920FB60F927D
:1016F00011240BB60F922F933F934F935F936F93E9
:101700007F938F939F93AF93BF93EF93FF938091BA
:10171000630290916402A0916502B0916602892BE8
:101720008A2B8B2BD1F19091620280910000892746
:10173000809300008091630290916402A091650201
:10174000B0916602181619061A061B069CF48091C1
:10175000630290916402A0916502B09166020197C4
:10176000A109B1098093630290936402A09365027A
:10177000B0936602FF91EF91BF91AF919F918F91CE
:101780007F916F915F914F913F912F910F900BBE81
:101790000F900FBE0F901F90189580910402ECEBF4
:1017A000F1E0E4919FEF90930402E230E9F040F41D
:1017B000EE2389F0E13091F060E00E94E302DACF9D
:1017C000E43049F110F1E530B9F7909173009D7F55
:1017D00090937300F1CF10926E00EECF90916F0056
:1017E0009D7F90936F00E8CF909170009D7F9093C4
:1017F000700091E09093B0009091B100987F946058
:101800009093B1001092B300D7CF909171009D7F5B
:1018100090937100D1CF909172009D7F9093720050
:10182000CBCF1F920F920FB60F9211240BB60F92CF
:101830002F933F934F935F936F937F938F939F93D8
:10184000AF93BF93EF93FF938FE393E00E949A05CA
:10185000FF91EF91BF91AF919F918F917F916F9188
:101860005F914F913F912F910F900BBE0F900FBE44
:101870000F901F9018951F920F920FB60F92112480
:101880000BB60F922F933F934F935F936F937F937A
:101890008F939F93AF93BF93EF93FF938FE393E067
:1018A0000E942605FF91EF91BF91AF919F918F917B
:1018B0007F916F915F914F913F912F910F900BBE50
:1018C0000F900FBE0F901F9018951F920F920FB69A
:1018D0000F9211240BB60F922F933F934F935F9368
:1018E0006F937F938F939F93AF93BF93EF93FF93E8
:1018F0008CED93E00E949A05FF91EF91BF91AF911B
:101900009F918F917F916F915F914F913F912F9117
:101910000F900BBE0F900FBE0F901F9018951F9247
:101920000F920FB60F9211240BB60F922F933F9385
:101930004F935F936F937F938F939F93AF93BF93D7
:10194000EF93FF938CED93E00E942605FF91EF91BA
:10195000BF91AF919F918F917F916F915F914F91C7
:101960003F912F910F900BBE0F900FBE0F901F90C5
:1019700018951F920F920FB60F9211240BB60F926B
:101980002F933F934F935F936F937F938F939F9387
:10199000AF93BF93EF93FF9389E794E00E949A057A
:1019A000FF91EF91BF91AF919F918F917F916F9137
:1019B0005F914F913F912F910F900BBE0F900FBEF3
:1019C0000F901F9018951F920F920FB60F9211242F
:1019D0000BB60F922F933F934F935F936F937F9329
:1019E0008F939F93AF93BF93EF93FF9389E794E017
:1019F0000E942605FF91EF91BF91AF919F918F912A
:101A00007F916F915F914F913F912F910F900BBEFE
:101A10000F900FBE0F901F9018951F920F920FB648
:101A20000F9211240BB60F922F933F934F935F9316
:101A30006F937F938F939F93AF93BF93EF93FF9396
:101A4000809117050E94BA0220911B0530911C0558
:101A50002F5F3F4F30931C0520931B0590911A0573
:101A6000953618F096E090931605909116059430EF
:101A700009F466C0B8F49230F1F0933009F444C030
:101A800090911905992309F46BC081117CC0809154
:101A90001805882309F463C08091180561E00E944D
:101AA000E3025EC0953009F457C0963049F791E0E3
:101AB0009093E7054FC08111E3CF20911B05309132
:101AC0001C052436310528F410921C0510921B05C4
:101AD000D7CF1092E70510921A05E0911A0591E010
:101AE0009E0F90931A05F0E020911B0530911C0584
:101AF000EE0FFF1FEA5EFA4F3087278310921C0516
:101B000010921B0593E019C0813009F0B9CFE09124
:101B10001A0591E09E0F90931A05F0E020911B05A5
:101B200030911C05EE0FFF1FEA5EFA4F30872783C6
:101B300010921C0510921B0594E090931605A0CFFF
:101B4000882359F220911B0530911C05253631055B
:101B500008F496CF95E0F1CF811192CFB5CF2F9AAF
:101B6000FF91EF91BF91AF919F918F917F916F9175
:101B70005F914F913F912F910F900BBE0F900FBE31
:101B80000F901F90189580911805882321F080915F
:101B9000180560E084CF2F98E3CF1F920F920FB605
:101BA0000F9211240BB60F922F933F934F935F9395
:101BB0006F937F938F939F93AF93BF93CF93DF9355
:101BC000EF93FF9380916102C0912406D0E087FFDC
:101BD00023C01092850010928400809161028F5F73
:101BE0008093610280916102082E000C990B8C1782
:101BF0009D0724F4809161028C3074F180918400FF
:101C00009091850084349C4908F465C080918400DB
:101C100090918500049661C080916102082E000CAD
:101C2000990B8C179D07CCF63091610225E03203A9
:101C3000F0011124E851FA4F808186FFCECF309118
:101C400061023203F0011124E851FA4F808160E013
:101C50008F730E94E302C1CF809184009091850030
:101C60003091610225E03203F0011124E851FA4F6E
:101C700041815281840F951F909389008093880041
:101C8000309161023203F0011124E851FA4F808152
:101C900086FF0CC0309161023203F0011124E8513B
:101CA000FA4F808161E08F730E94E302FF91EF9110
:101CB000DF91CF91BF91AF919F918F917F916F9164
:101CC0005F914F913F912F910F900BBE0F900FBEE0
:101CD0000F901F90189580E49CE990938900809361
:101CE00088008FEF80936102E1CF1092360310924B
:101CF000350388EE93E0A0E0B0E080933703909343
:101D00003803A0933903B0933A0327E132E03093CC
:101D100034032093330310924203109241038093C3
:101D2000430390934403A0934503B093460329E2F1
:101D300032E03093400320933F0345E351E050935A
:101D40004C0340934B0344E351E050934E034093C4
:101D50004D0340E351E05093500340934F0341E360
:101D600051E0509352034093510342E351E05093AA
:101D700054034093530346E351E05093560340937A
:101D80005503109258031092590310925A0310925F
:101D90005B031092DF031092DE038093E0039093C5
:101DA000E103A093E203B093E3033093DD032093B8
:101DB000DC0345ED50E05093E9034093E80344ED24
:101DC00050E05093EB034093EA0340ED50E0509312
:101DD000ED034093EC0341ED50E05093EF0340934B
:101DE000EE0342ED50E05093F1034093F00346EDD3
:101DF00050E05093F3034093F2031092F5031092D6
:101E0000F6031092F7031092F80310927C041092DC
:101E10007B0480937D0490937E04A0937F04B09311
:101E2000800430937A042093790485EC90E09093B9
:101E300086048093850484EC90E0909388048093DA
:101E4000870480EC90E090938A048093890481EC6D
:101E500090E090938C0480938B0482EC90E09093BC
:101E60008E0480938D0486EC90E090939004809390
:101E70008F04109292041092930410929404109282
:101E8000950480910B0290910C02A0910D02B091EB
:101E90000E0280930E0790930F07A0931007B09344
:101EA000110780910F0290911002A0911102B09140
:101EB00012028093120790931307A0931407B09314
:101EC000150784E08093160787E080931707109228
:101ED000180784EB8093190786E180931A0788E13D
:101EE00080931B0787E180931C0789E180931D077E
:101EF000E0912406EC3008F4A9C08FEF80931E0710
:101F0000E0912406EC3008F4B2C08FEF80931F07F5
:101F10008CE08093ED0684E28093EE0686E0809369
:101F2000EF0685E08093F0068FE18093F1068EE165
:101F30008093F20683E28093F30682E28093F406B4
:101F400085E48093F50684E48093F60680E480932C
:101F5000F9061092FE061092FF06109200071092EA
:101F600001071092020710920307109204071092C3
:101F70000507EFE2F6E08FEF9FEFDC01128213829C
:101F800014821582168217821086118683879487A1
:101F9000A587B6878787908BA18BB28B128611821B
:101FA0001082739626E0ED3EF20741F78DE090E057
:101FB0000E947915FC01138212828BE392E09183D7
:101FC0008083118687E2848384E1828784E083872B
:101FD0001486F0932C06E0932B0610922D06109297
:101FE0002E0685E280931705109219051092260699
:101FF00010922506109228061092270610922A06A3
:102000001092290661E070E090E080E00E949E1648
:102010000097F1F1909326068093250610922806EA
:10202000109227062091290630912A06232B11F4BD
:10203000FC01108210922A061092290663E472E0D5
:1020400080912506909126060C94881781E08E0FCA
:1020500080932406E0931E0725E0E29FF0011124FF
:10206000E851FA4F88EB9BE09283818349CF81E06E
:102070008E0F80932406E0931F0785E0E89FF00110
:102080001124E851FA4F88EB9BE09283818340CF83
:102090008091250690912606009711F00E94151652
:1020A000109226061092250610922A0610922906F2
:1020B00010922806109227060895789484B58260BD
:1020C00084BD84B5816084BD85B5826085BD85B5DC
:1020D000816085BD80916E00816080936E0010925A
:1020E00081008091810082608093810080918100D5
:1020F0008160809381008091800081608093800066
:102100008091B10084608093B1008091B0008160C3
:102110008093B000809191008260809391008091C3
:102120009100816080939100809190008160809304
:1021300090008091A10082608093A1008091A10015
:1021400081608093A1008091A00081608093A000B5
:102150008091210182608093210180912101816021
:1021600080932101809120018160809320018091E2
:102170007A00846080937A0080917A0082608093F4
:102180007A0080917A00816080937A0080917A0051
:10219000806880937A001092C100E0918904F091E8
:1021A0008A0482E08083E0918504F09186041082A5
:1021B000E0918704F09188048FEC80831092910461
:1021C000E0918D04F0918E0486E08083E0918B0491
:1021D000F0918C04808180618083E0918B04F09188
:1021E0008C04808188608083E0918B04F0918C0462
:1021F000808180688083E0918B04F0918C048081E1
:102200008F7D808361E08091EE060E94500360E044
:102210008091EE060E94E30260E08091ED060E944C
:10222000500383E393E09093F8068093F7061092AF
:1022300098021092970210921003109232030E949B
:1022400011038BEC91E09093BB028093BA028CEC6B
:1022500091E09093BF028093BE0280E090E1A0E005
:10226000B0E08093FA069093FB06A093FC06B0932F
:10227000FD068AE090E0A0E0B0E08093FE06909337
:10228000FF06A0930007B093010780E090E0A0E074
:10229000B0E48093020790930307A0930407B093E0
:1022A000050760E070E185E00E94C2046FE979E310
:1022B00080E00E94C2040FEE16E0CDEED6E0E1EF22
:1022C000CE2EE6E0DE2EF0E46F2EF2E07F2EA6E8C2
:1022D0008A2EA2E09A2EBBECEB2EB7E0FB2ED801A3
:1022E00012969C91F80181918F01898F9A8F61E0FC
:1022F0000E94500361E08A8D0E9450035E01FDE15F
:10230000AF0EB11CD80115969C91159713968C9120
:102310008D8F9E8F61E00E94500360E08E8D0E9441
:10232000500361E08D8D0E94E3025FB6F8948091C6
:102330006702811125C0F3018491F4019491E82F83
:10234000F0E0EE0FFF1FE354FE4FA591B4918C9186
:10235000982321F461E085E30E94E30261E085E3D4
:102360000E9450038CB580618CBD8CB580648CBD9F
:1023700061E084E30E94500361E083E30E94500324
:10238000809167028F5F809367025FBEC7010197EC
:10239000F1F760E08D8D0E94E30288E80E947807E3
:1023A00083E00E94780761E08D8D0E94E302C701FF
:1023B0000197F1F7C5010E947F072296CC16DD0632
:1023C00009F08DCF02E117E0CEE0D7E060E0D80160
:1023D0008D918D010E945003B7E006311B07B1F7C4
:1023E00006E117E032E1E32E37E0F32E45E0D42E8C
:1023F0005CE0B52E62E0C62EF801A1908F018781C6
:102400008C3008F046C061E08A2D0E945003D8014C
:1024100017968C91D89EF0011124E851FA4F2A2D7D
:102420002F739081907C922B9083138214826B2D5A
:102430000E94BD148B9DA001112430E020E0BA0160
:10244000620F731FD69EF001D79EF00D1124E85144
:10245000FA4F908196FD12C02F5F3F4F2C3031050F
:1024600071F781110BC010928000C0928100109210
:10247000850010928400C6BAC0926F00D8011796EA
:10248000EC91DE9EF0011124E851FA4F80818064C6
:102490008083F801958183818A8B9B8B60E00E9409
:1024A000500361E08B890E94500360E08B890E9499
:1024B000E3022296EC16FD0609F09ECFF8941092E6
:1024C000200189E08093210180E293E0909329012B
:1024D00080932801109225011092240182E08093BC
:1024E000730078948093160510921A058091170551
:1024F00060E00E94500360E080E30E94500360E0CF
:1025000081E30E94500382E090E090936B028093FD
:102510006A0281E090E090936D0280936C021092C9
:1025200069021092680283E0C82ED12C92E0E92E55
:10253000F12CAA24A394B12C0E94A603C0916C0292
:10254000D0916D02CA30D1050CF0E5C081E30E9444
:10255000BA02892BE9F400916A0210916B020230F1
:10256000110519F10330110509F4CAC00130110534
:1025700029F70E9494080E942309F0926B02E092CE
:102580006A020E9479081093690200936802D6CF0C
:1025900080E30E94BA02892BF1F20E94230921965E
:1025A000D0936D02C0936C02C9CF00916802109164
:1025B000690203301105D1F40E94790881E30E9479
:1025C000BA02892B71F080E30E94BA02892B49F08C
:1025D0000E942309B0926B02A0926A020E949408A2
:1025E0005BC00E9479080E949609F2CF0E9494086D
:1025F00081E30E94BA02892BE1F080E30E94BA02D3
:10260000892BB9F00E942309D0926B02C0926A0212
:102610000E94790881E30E94BA02892B09F069C0FF
:102620000E9479080E942309F0926B02E0926A02EC
:10263000C5CF0E9494080E9423090E942309CE015D
:10264000029790936D0280936C020E94790881E357
:102650000E94BA02892B29F50E9494080E9423093E
:102660000E9423092497D0936D02C0936C020E94AC
:1026700079080E942309D0926B02C0926A020E94DC
:1026800079080130110541F481E30E94BA02892BD7
:1026900071F080E30E94BA021092690210926802FF
:1026A0004DCF80E30E94BA02892BB1F2E2CF4DEC0C
:1026B0005CEC6CE47EEB88E097E00E9451064DEC08
:1026C0005CEC6CE47EEB86E097E00E9451068CE0C7
:1026D00097E00E94AA0768377F4081059105BCF307
:1026E0000E9460080E942309F0926B02E0926A0245
:1026F00075CF80E30E94BA02892B09F491CFCCCF29
:102700000E9479080E942309F0926B02E0926A020B
:102710000E94940838CF0E9460080E942C060CCFBB
:102720008091250690912606009711F00C941516BD
:1027300008950E94DB1308F481E00895E89409C02D
:1027400097FB3EF490958095709561957F4F8F4FE4
:102750009F4F9923A9F0F92F96E9BB279395F695FA
:10276000879577956795B795F111F8CFFAF4BB0F78
:1027700011F460FF1BC06F5F7F4F8F4F9F4F16C0DC
:10278000882311F096E911C0772321F09EE8872F66
:10279000762F05C0662371F096E8862F70E060E022
:1027A0002AF09A95660F771F881FDAF7880F96959B
:1027B000879597F90895990F0008550FAA0BE0E83F
:1027C000FEEF16161706E807F907C0F012161306F3
:1027D000E407F50798F0621B730B840B950B39F433
:1027E0000A2661F0232B242B252B21F408950A2699
:1027F00009F4A140A6958FEF811D811D08950E94C7
:1028000012140C9483140E94751438F00E947C14E6
:1028100020F0952311F00C946C140C947214112474
:102820000C94B7140E94941470F3959FC1F3950F04
:1028300050E0551F629FF001729FBB27F00DB11D44
:10284000639FAA27F00DB11DAA1F649F6627B00DD4
:10285000A11D661F829F2227B00DA11D621F739FBD
:10286000B00DA11D621F839FA00D611D221F749FCB
:102870003327A00D611D231F849F600D211D822F12
:10288000762F6A2F11249F5750409AF0F1F0882339
:102890004AF0EE0FFF1FBB1F661F771F881F915066
:1028A0005040A9F79E3F510580F00C946C140C9495
:1028B000B7145F3FE4F3983ED4F386957795679518
:1028C000B795F795E7959F5FC1F7FE2B880F911D90
:1028D0009695879597F9089597F99F6780E870E036
:1028E00060E008959FEF80EC089500240A94161686
:1028F000170618060906089500240A9412161306EE
:10290000140605060895092E0394000C11F488237B
:1029100052F0BB0F40F4BF2B11F460FF04C06F5F97
:102920007F4F8F4F9F4F089557FD9058440F551F6D
:1029300059F05F3F71F04795880F97FB991F61F041
:102940009F3F79F087950895121613061406551FB8
:10295000F2CF4695F1DF08C0161617061806991F24
:10296000F1CF86957105610508940895E894BB2719
:1029700066277727CB0197F90895991B79E004C062
:10298000991F961708F0961B881F7A95C9F78095AE
:102990000895EE0FFF1F881F8BBF0790F691E02D63
:1029A00019945058BB27AA270E94E9140C94831449
:1029B0000E94751438F00E947C1420F039F49F3F77
:1029C00019F426F40C9472140EF4E095E7FB0C94C1
:1029D0006C14E92F0E94941458F3BA176207730716
:1029E0008407950720F079F4A6F50C94B6140EF43C
:1029F000E0950B2EBA2FA02D0B01B90190010C010F
:102A0000CA01A0011124FF27591B99F0593F50F426
:102A1000503E68F11A16F040A22F232F342F44277E
:102A2000585FF3CF469537952795A795F040539576
:102A3000C9F77EF41F16BA0B620B730B840BBAF046
:102A40009150A1F0FF0FBB1F661F771F881FC2F7B1
:102A50000EC0BA0F621F731F841F48F487957795C5
:102A60006795B795F7959E3F08F0B0CF9395880F7F
:102A700008F09927EE0F9795879508950E944515C0
:102A80006894B1110C94B71408950E949C1488F0B6
:102A90009F5798F0B92F9927B751B0F0E1F0660F22
:102AA000771F881F991F1AF0BA95C9F714C0B13063
:102AB00091F00E94B614B1E008950C94B614672FFB
:102AC000782F8827B85F39F0B93FCCF38695779592
:102AD0006795B395D9F73EF490958095709561957B
:102AE0007F4F8F4F9F4F08950E94DB1308F48FEFA5
:102AF00008950F931F93CF93DF938230910510F4C5
:102B000082E090E0E0912607F091270730E020E096
:102B1000B0E0A0E0309799F42115310509F44AC0DE
:102B2000281B390B24303105D8F58A819B8161152A
:102B3000710589F1FB0193838283FE0111C04081FD
:102B400051810281138148175907E0F0481759074E
:102B500099F4109761F012960C93129713961C93A8
:102B60003296CF01DF91CF911F910F91089500937D
:102B7000260710932707F4CF2115310551F042178E
:102B8000530738F0A901DB019A01BD01DF01F8010B
:102B9000C1CFEF01F9CF9093270780932607CDCFC0
:102BA000FE01E20FF31F8193919322503109398383
:102BB0002883D7CF2091240730912507232B41F478
:102BC00020910702309108023093250720932407B3
:102BD00020910502309106022115310541F42DB7EF
:102BE0003EB74091090250910A02241B350BE09137
:102BF0002407F0912507E217F307A0F42E1B3F0BE3
:102C00002817390778F0AC014E5F5F4F241735075E
:102C100048F04E0F5F1F5093250740932407819380
:102C200091939FCFF0E0E0E09CCFCF93DF930097AC
:102C3000E9F0FC01329713821282A0912607B0912D
:102C40002707ED0130E020E01097A1F420813181C9
:102C5000820F931F209124073091250728173907E9
:102C600009F061C0F0932507E0932407DF91CF912D
:102C70000895EA01CE17DF07E8F54A815B819E01DE
:102C800041155105B1F7E901FB83EA834991599157
:102C9000C40FD51FEC17FD0761F480819181029666
:102CA000840F951FE90199838883828193819B8397
:102CB0008A83F0E0E0E012968D919C911397009743
:102CC000B9F52D913C911197CD010296820F931F7A
:102CD00020912407309125072817390739F63097B6
:102CE00051F51092270710922607B0932507A0935D
:102CF0002407BCCFD383C28340815181840F951FA9
:102D0000C817D90761F44E5F5F4F88819981480FDA
:102D1000591F518340838A819B819383828321152C
:102D2000310509F0B0CFF0932707E09326079ECF37
:102D3000FD01DC01C0CF13821282D7CF4F925F9288
:102D40006F927F928F929F92AF92BF92CF92DF92BB
:102D5000EF92FF920F931F93CF93DF938C01009715
:102D600099F4CB01DF91CF911F910F91FF90EF90DC
:102D7000DF90CF90BF90AF909F908F907F906F909B
:102D80005F904F900C947915FC01E60FF71F9C01A2
:102D900022503109E217F30708F4AEC0D901CD91F2
:102DA000DC911197C617D70720F1C530D10578F00F
:102DB000CE0104978617970750F0C61BD70B2297B2
:102DC000C193D1936D937C93CF010E941516C801D6
:102DD000DF91CF911F910F91FF90EF90DF90CF90F7
:102DE000BF90AF909F908F907F906F905F904F902B
:102DF00008955B01AC1ABD0A4C018C0E9D1EA0917A
:102E00002607B0912707512C412CF12CE12C10976B
:102E100031F580912407909125078815990509F0CF
:102E20005CC04616570608F058C080910502909184
:102E30000602009741F48DB79EB740910902509168
:102E40000A02841B950BE817F90708F055C0F093A8
:102E50002507E0932407F90171836083B8CF8D9132
:102E60009C91119712966C90129713967C901397E1
:102E7000A815B90559F56C0142E0C40ED11CCA145D
:102E8000DB0420F1AC014A195B09DA0112961597AF
:102E900080F06282738251834083D9016D937C9369
:102EA000E114F10471F0D7011396FC93EE9312979D
:102EB0008ECF22968C0F9D1FF90191838083F301A1
:102EC000EFCFF0932707E093260781CF48165906E6
:102ED00008F42C017D01D3019ACFCB010E94791512
:102EE0007C01009749F0AE01B8010E947F17C8012C
:102EF0000E94151687016BCF10E000E068CFFB0140
:102F0000DC0102C001900D9241505040D8F7089565
:102F1000FB01DC0101900D920020E1F7089511E022
:102F2000C0E7D1E000E006C0802FFE010E94C91476
:102F30002196011DC137D10780E00807A9F7F89451
:022F4000FFCFC1
:102F42000000803FFF000028078000363738391B19
:102F52001D1A1C000000002402F7012408CD01F014
:102F620001DD01CE0100000000BC05F9043F0509A6
:102F72000670054E056205000000003C08F90424B5
:042F82000823080018
:00000001FF
